Frame 3 (78 bytes on wire, 78 bytes captured)
Ethernet II, Src: 00:e0:4c:9d:47:c7, Dst: 00:50:f2:73:74:28
    Destination: 00:50:f2:73:74:28 (Microsof_73:74:28)
    Source: 00:e0:4c:9d:47:c7 (Realtek__9d:47:c7)
    Type: IP (0x0800)
Internet Protocol, Src Addr: 192.168.2.27 (192.168.2.27), Dst Addr: 63.240.202.126 (63.240.202.126)
    Version: 4
    Header length: 20 bytes
    Differentiated Services Field: 0x00 (DSCP 0x00: Default; ECN: 0x00)
        0000 00.. = Differentiated Services Codepoint: Default (0x00)
        .... ..0. = ECN-Capable Transport (ECT): 0
        .... ...0 = ECN-CE: 0
    Total Length: 64
    Identification: 0x5d1b
    Flags: 0x04
    Fragment offset: 0
    Time to live: 128
    Protocol: TCP (0x06)
    Header checksum: 0xd06a (correct)
    Source: 192.168.2.27 (192.168.2.27)
    Destination: 63.240.202.126 (63.240.202.126)
Transmission Control Protocol, Src Port: 2062 (2062), Dst Port: 6112 (6112), Seq: 1307580031, Ack: 0, Len: 0
    Source port: 2062 (2062)
    Destination port: 6112 (6112)
    Sequence number: 1307580031
    Header length: 44 bytes
    Flags: 0x0002 (SYN)
    Window size: 32767
    Checksum: 0x6472 (correct)
    Options: (24 bytes)

0000  00 50 f2 73 74 28 00 e0 4c 9d 47 c7 08 00 45 00   .P.st(..L.G...E.
0010  00 40 5d 1b 40 00 80 06 d0 6a c0 a8 02 1b 3f f0   .@].@....j....?.
0020  ca 7e 08 0e 17 e0 4d f0 16 7f 00 00 00 00 b0 02   .~....M.........
0030  7f ff 64 72 00 00 02 04 05 b4 01 03 03 00 01 01   ..dr............
0040  08 0a 00 00 00 00 00 00 00 00 01 01 04 02         ..............

Frame 4 (78 bytes on wire, 78 bytes captured)
Ethernet II, Src: 00:50:f2:73:74:28, Dst: 00:e0:4c:9d:47:c7
    Destination: 00:e0:4c:9d:47:c7 (Realtek__9d:47:c7)
    Source: 00:50:f2:73:74:28 (Microsof_73:74:28)
    Type: IP (0x0800)
Internet Protocol, Src Addr: 63.240.202.126 (63.240.202.126), Dst Addr: 192.168.2.27 (192.168.2.27)
    Version: 4
    Header length: 20 bytes
    Differentiated Services Field: 0x00 (DSCP 0x00: Default; ECN: 0x00)
        0000 00.. = Differentiated Services Codepoint: Default (0x00)
        .... ..0. = ECN-Capable Transport (ECT): 0
        .... ...0 = ECN-CE: 0
    Total Length: 64
    Identification: 0x9797
    Flags: 0x00
    Fragment offset: 0
    Time to live: 113
    Protocol: TCP (0x06)
    Header checksum: 0xe4ee (correct)
    Source: 63.240.202.126 (63.240.202.126)
    Destination: 192.168.2.27 (192.168.2.27)
Transmission Control Protocol, Src Port: 6112 (6112), Dst Port: 2062 (2062), Seq: 1641979740, Ack: 1307580032, Len: 0
    Source port: 6112 (6112)
    Destination port: 2062 (2062)
    Sequence number: 1641979740
    Acknowledgement number: 1307580032
    Header length: 44 bytes
    Flags: 0x0012 (SYN, ACK)
    Window size: 65535
    Checksum: 0xe317 (correct)
    Options: (24 bytes)

0000  00 e0 4c 9d 47 c7 00 50 f2 73 74 28 08 00 45 00   ..L.G..P.st(..E.
0010  00 40 97 97 00 00 71 06 e4 ee 3f f0 ca 7e c0 a8   .@....q...?..~..
0020  02 1b 17 e0 08 0e 61 de 9f 5c 4d f0 16 80 b0 12   ......a..\M.....
0030  ff ff e3 17 00 00 02 04 05 b4 01 03 03 0e 01 01   ................
0040  08 0a 00 00 00 00 00 00 00 00 01 01 04 02         ..............

Frame 5 (66 bytes on wire, 66 bytes captured)
Ethernet II, Src: 00:e0:4c:9d:47:c7, Dst: 00:50:f2:73:74:28
    Destination: 00:50:f2:73:74:28 (Microsof_73:74:28)
    Source: 00:e0:4c:9d:47:c7 (Realtek__9d:47:c7)
    Type: IP (0x0800)
Internet Protocol, Src Addr: 192.168.2.27 (192.168.2.27), Dst Addr: 63.240.202.126 (63.240.202.126)
    Version: 4
    Header length: 20 bytes
    Differentiated Services Field: 0x00 (DSCP 0x00: Default; ECN: 0x00)
        0000 00.. = Differentiated Services Codepoint: Default (0x00)
        .... ..0. = ECN-Capable Transport (ECT): 0
        .... ...0 = ECN-CE: 0
    Total Length: 52
    Identification: 0x5d1c
    Flags: 0x04
    Fragment offset: 0
    Time to live: 128
    Protocol: TCP (0x06)
    Header checksum: 0xd075 (correct)
    Source: 192.168.2.27 (192.168.2.27)
    Destination: 63.240.202.126 (63.240.202.126)
Transmission Control Protocol, Src Port: 2062 (2062), Dst Port: 6112 (6112), Seq: 1307580032, Ack: 1641979741, Len: 0
    Source port: 2062 (2062)
    Destination port: 6112 (6112)
    Sequence number: 1307580032
    Acknowledgement number: 1641979741
    Header length: 32 bytes
    Flags: 0x0010 (ACK)
    Window size: 32767
    Checksum: 0xc991 (correct)
    Options: (12 bytes)

0000  00 50 f2 73 74 28 00 e0 4c 9d 47 c7 08 00 45 00   .P.st(..L.G...E.
0010  00 34 5d 1c 40 00 80 06 d0 75 c0 a8 02 1b 3f f0   .4].@....u....?.
0020  ca 7e 08 0e 17 e0 4d f0 16 80 61 de 9f 5d 80 10   .~....M...a..]..
0030  7f ff c9 91 00 00 01 01 08 0a 00 8a d9 d5 00 00   ................
0040  00 00                                             ..

Frame 6 (67 bytes on wire, 67 bytes captured)
Ethernet II, Src: 00:e0:4c:9d:47:c7, Dst: 00:50:f2:73:74:28
    Destination: 00:50:f2:73:74:28 (Microsof_73:74:28)
    Source: 00:e0:4c:9d:47:c7 (Realtek__9d:47:c7)
    Type: IP (0x0800)
Internet Protocol, Src Addr: 192.168.2.27 (192.168.2.27), Dst Addr: 63.240.202.126 (63.240.202.126)
    Version: 4
    Header length: 20 bytes
    Differentiated Services Field: 0x00 (DSCP 0x00: Default; ECN: 0x00)
        0000 00.. = Differentiated Services Codepoint: Default (0x00)
        .... ..0. = ECN-Capable Transport (ECT): 0
        .... ...0 = ECN-CE: 0
    Total Length: 53
    Identification: 0x5d1d
    Flags: 0x04
    Fragment offset: 0
    Time to live: 128
    Protocol: TCP (0x06)
    Header checksum: 0xd073 (correct)
    Source: 192.168.2.27 (192.168.2.27)
    Destination: 63.240.202.126 (63.240.202.126)
Transmission Control Protocol, Src Port: 2062 (2062), Dst Port: 6112 (6112), Seq: 1307580032, Ack: 1641979741, Len: 1
    Source port: 2062 (2062)
    Destination port: 6112 (6112)
    Sequence number: 1307580032
    Next sequence number: 1307580033
    Acknowledgement number: 1641979741
    Header length: 32 bytes
    Flags: 0x0018 (PSH, ACK)
    Window size: 32767
    Checksum: 0xc887 (correct)
    Options: (12 bytes)
Data (1 byte)

0000  00 50 f2 73 74 28 00 e0 4c 9d 47 c7 08 00 45 00   .P.st(..L.G...E.
0010  00 35 5d 1d 40 00 80 06 d0 73 c0 a8 02 1b 3f f0   .5].@....s....?.
0020  ca 7e 08 0e 17 e0 4d f0 16 80 61 de 9f 5d 80 18   .~....M...a..]..
0030  7f ff c8 87 00 00 01 01 08 0a 00 8a d9 d6 00 00   ................
0040  00 00 01                                          ...

Frame 7 (66 bytes on wire, 66 bytes captured)
Ethernet II, Src: 00:50:f2:73:74:28, Dst: 00:e0:4c:9d:47:c7
    Destination: 00:e0:4c:9d:47:c7 (Realtek__9d:47:c7)
    Source: 00:50:f2:73:74:28 (Microsof_73:74:28)
    Type: IP (0x0800)
Internet Protocol, Src Addr: 63.240.202.126 (63.240.202.126), Dst Addr: 192.168.2.27 (192.168.2.27)
    Version: 4
    Header length: 20 bytes
    Differentiated Services Field: 0x00 (DSCP 0x00: Default; ECN: 0x00)
        0000 00.. = Differentiated Services Codepoint: Default (0x00)
        .... ..0. = ECN-Capable Transport (ECT): 0
        .... ...0 = ECN-CE: 0
    Total Length: 52
    Identification: 0x97d6
    Flags: 0x00
    Fragment offset: 0
    Time to live: 113
    Protocol: TCP (0x06)
    Header checksum: 0xe4bb (correct)
    Source: 63.240.202.126 (63.240.202.126)
    Destination: 192.168.2.27 (192.168.2.27)
Transmission Control Protocol, Src Port: 6112 (6112), Dst Port: 2062 (2062), Seq: 1641979741, Ack: 1307580033, Len: 0
    Source port: 6112 (6112)
    Destination port: 2062 (2062)
    Sequence number: 1641979741
    Acknowledgement number: 1307580033
    Header length: 32 bytes
    Flags: 0x0010 (ACK)
    Window size: 65534
    Checksum: 0xdd85 (correct)
    Options: (12 bytes)

0000  00 e0 4c 9d 47 c7 00 50 f2 73 74 28 08 00 45 00   ..L.G..P.st(..E.
0010  00 34 97 d6 00 00 71 06 e4 bb 3f f0 ca 7e c0 a8   .4....q...?..~..
0020  02 1b 17 e0 08 0e 61 de 9f 5d 4d f0 16 81 80 10   ......a..]M.....
0030  ff fe dd 85 00 00 01 01 08 0a 02 09 6a 01 00 8a   ............j...
0040  d9 d6                                             ..

Frame 8 (124 bytes on wire, 124 bytes captured)
Ethernet II, Src: 00:e0:4c:9d:47:c7, Dst: 00:50:f2:73:74:28
    Destination: 00:50:f2:73:74:28 (Microsof_73:74:28)
    Source: 00:e0:4c:9d:47:c7 (Realtek__9d:47:c7)
    Type: IP (0x0800)
Internet Protocol, Src Addr: 192.168.2.27 (192.168.2.27), Dst Addr: 63.240.202.126 (63.240.202.126)
    Version: 4
    Header length: 20 bytes
    Differentiated Services Field: 0x00 (DSCP 0x00: Default; ECN: 0x00)
        0000 00.. = Differentiated Services Codepoint: Default (0x00)
        .... ..0. = ECN-Capable Transport (ECT): 0
        .... ...0 = ECN-CE: 0
    Total Length: 110
    Identification: 0x5d1e
    Flags: 0x04
    Fragment offset: 0
    Time to live: 128
    Protocol: TCP (0x06)
    Header checksum: 0xd039 (correct)
    Source: 192.168.2.27 (192.168.2.27)
    Destination: 63.240.202.126 (63.240.202.126)
Transmission Control Protocol, Src Port: 2062 (2062), Dst Port: 6112 (6112), Seq: 1307580033, Ack: 1641979741, Len: 58
    Source port: 2062 (2062)
    Destination port: 6112 (6112)
    Sequence number: 1307580033
    Next sequence number: 1307580091
    Acknowledgement number: 1641979741
    Header length: 32 bytes
    Flags: 0x0018 (PSH, ACK)
    Window size: 32767
    Checksum: 0x0c84 (correct)
    Options: (12 bytes)
Data (58 bytes)

0000  00 50 f2 73 74 28 00 e0 4c 9d 47 c7 08 00 45 00   .P.st(..L.G...E.
0010  00 6e 5d 1e 40 00 80 06 d0 39 c0 a8 02 1b 3f f0   .n].@....9....?.
0020  ca 7e 08 0e 17 e0 4d f0 16 81 61 de 9f 5d 80 18   .~....M...a..]..
0030  7f ff 0c 84 00 00 01 01 08 0a 00 8a d9 d6 02 09   ................
0040  6a 01 ff 50 3a 00 00 00 00 00 36 38 58 49 50 58   j..P:.....68XIPX
0050  33 57 0c 00 00 00 53 55 6e 65 c0 a8 02 1b 2c 01   3W....SUne....,.
0060  00 00 09 04 00 00 09 04 00 00 55 53 41 00 55 6e   ..........USA.Un
0070  69 74 65 64 20 53 74 61 74 65 73 00               ited States.

Frame 9 (66 bytes on wire, 66 bytes captured)
Ethernet II, Src: 00:50:f2:73:74:28, Dst: 00:e0:4c:9d:47:c7
    Destination: 00:e0:4c:9d:47:c7 (Realtek__9d:47:c7)
    Source: 00:50:f2:73:74:28 (Microsof_73:74:28)
    Type: IP (0x0800)
Internet Protocol, Src Addr: 63.240.202.126 (63.240.202.126), Dst Addr: 192.168.2.27 (192.168.2.27)
    Version: 4
    Header length: 20 bytes
    Differentiated Services Field: 0x00 (DSCP 0x00: Default; ECN: 0x00)
        0000 00.. = Differentiated Services Codepoint: Default (0x00)
        .... ..0. = ECN-Capable Transport (ECT): 0
        .... ...0 = ECN-CE: 0
    Total Length: 52
    Identification: 0x9802
    Flags: 0x00
    Fragment offset: 0
    Time to live: 113
    Protocol: TCP (0x06)
    Header checksum: 0xe48f (correct)
    Source: 63.240.202.126 (63.240.202.126)
    Destination: 192.168.2.27 (192.168.2.27)
Transmission Control Protocol, Src Port: 6112 (6112), Dst Port: 2062 (2062), Seq: 1641979741, Ack: 1307580091, Len: 0
    Source port: 6112 (6112)
    Destination port: 2062 (2062)
    Sequence number: 1641979741
    Acknowledgement number: 1307580091
    Header length: 32 bytes
    Flags: 0x0010 (ACK)
    Window size: 65534
    Checksum: 0xdd4a (correct)
    Options: (12 bytes)

0000  00 e0 4c 9d 47 c7 00 50 f2 73 74 28 08 00 45 00   ..L.G..P.st(..E.
0010  00 34 98 02 00 00 71 06 e4 8f 3f f0 ca 7e c0 a8   .4....q...?..~..
0020  02 1b 17 e0 08 0e 61 de 9f 5d 4d f0 16 bb 80 10   ......a..]M.....
0030  ff fe dd 4a 00 00 01 01 08 0a 02 09 6a 02 00 8a   ...J........j...
0040  d9 d6                                             ..

Frame 10 (74 bytes on wire, 74 bytes captured)
Ethernet II, Src: 00:50:f2:73:74:28, Dst: 00:e0:4c:9d:47:c7
    Destination: 00:e0:4c:9d:47:c7 (Realtek__9d:47:c7)
    Source: 00:50:f2:73:74:28 (Microsof_73:74:28)
    Type: IP (0x0800)
Internet Protocol, Src Addr: 63.240.202.126 (63.240.202.126), Dst Addr: 192.168.2.27 (192.168.2.27)
    Version: 4
    Header length: 20 bytes
    Differentiated Services Field: 0x00 (DSCP 0x00: Default; ECN: 0x00)
        0000 00.. = Differentiated Services Codepoint: Default (0x00)
        .... ..0. = ECN-Capable Transport (ECT): 0
        .... ...0 = ECN-CE: 0
    Total Length: 60
    Identification: 0x9803
    Flags: 0x00
    Fragment offset: 0
    Time to live: 113
    Protocol: TCP (0x06)
    Header checksum: 0xe486 (correct)
    Source: 63.240.202.126 (63.240.202.126)
    Destination: 192.168.2.27 (192.168.2.27)
Transmission Control Protocol, Src Port: 6112 (6112), Dst Port: 2062 (2062), Seq: 1641979741, Ack: 1307580091, Len: 8
    Source port: 6112 (6112)
    Destination port: 2062 (2062)
    Sequence number: 1641979741
    Next sequence number: 1641979749
    Acknowledgement number: 1307580091
    Header length: 32 bytes
    Flags: 0x0018 (PSH, ACK)
    Window size: 65534
    Checksum: 0xa66f (correct)
    Options: (12 bytes)
Data (8 bytes)

0000  00 e0 4c 9d 47 c7 00 50 f2 73 74 28 08 00 45 00   ..L.G..P.st(..E.
0010  00 3c 98 03 00 00 71 06 e4 86 3f f0 ca 7e c0 a8   .<....q...?..~..
0020  02 1b 17 e0 08 0e 61 de 9f 5d 4d f0 16 bb 80 18   ......a..]M.....
0030  ff fe a6 6f 00 00 01 01 08 0a 02 09 6a 02 00 8a   ...o........j...
0040  d9 d6 ff 25 08 00 0c 25 23 80                     ...%...%#.

Frame 11 (292 bytes on wire, 292 bytes captured)
Ethernet II, Src: 00:50:f2:73:74:28, Dst: 00:e0:4c:9d:47:c7
    Destination: 00:e0:4c:9d:47:c7 (Realtek__9d:47:c7)
    Source: 00:50:f2:73:74:28 (Microsof_73:74:28)
    Type: IP (0x0800)
Internet Protocol, Src Addr: 63.240.202.126 (63.240.202.126), Dst Addr: 192.168.2.27 (192.168.2.27)
    Version: 4
    Header length: 20 bytes
    Differentiated Services Field: 0x00 (DSCP 0x00: Default; ECN: 0x00)
        0000 00.. = Differentiated Services Codepoint: Default (0x00)
        .... ..0. = ECN-Capable Transport (ECT): 0
        .... ...0 = ECN-CE: 0
    Total Length: 278
    Identification: 0x9804
    Flags: 0x00
    Fragment offset: 0
    Time to live: 113
    Protocol: TCP (0x06)
    Header checksum: 0xe3ab (correct)
    Source: 63.240.202.126 (63.240.202.126)
    Destination: 192.168.2.27 (192.168.2.27)
Transmission Control Protocol, Src Port: 6112 (6112), Dst Port: 2062 (2062), Seq: 1641979749, Ack: 1307580091, Len: 226
    Source port: 6112 (6112)
    Destination port: 2062 (2062)
    Sequence number: 1641979749
    Next sequence number: 1641979975
    Acknowledgement number: 1307580091
    Header length: 32 bytes
    Flags: 0x0018 (PSH, ACK)
    Window size: 65534
    Checksum: 0xd085 (correct)
    Options: (12 bytes)
Data (226 bytes)

0000  00 e0 4c 9d 47 c7 00 50 f2 73 74 28 08 00 45 00   ..L.G..P.st(..E.
0010  01 16 98 04 00 00 71 06 e3 ab 3f f0 ca 7e c0 a8   ......q...?..~..
0020  02 1b 17 e0 08 0e 61 de 9f 65 4d f0 16 bb 80 18   ......a..eM.....
0030  ff fe d0 85 00 00 01 01 08 0a 02 09 6a 02 00 8a   ............j...
0040  d9 d6 ff 50 e2 00 02 00 00 00 93 f3 42 96 8e 80   ...P........B...
0050  4c 00 00 3c 5b a5 63 e8 c0 01 49 58 38 36 76 65   L..<[.c...IX86ve
0060  72 37 2e 6d 70 71 00 41 3d 32 36 32 39 33 30 31   r7.mpq.A=2629301
0070  33 36 20 42 3d 39 32 31 33 31 34 35 34 20 43 3d   36 B=92131454 C=
0080  33 32 35 31 34 35 36 37 31 20 34 20 41 3d 41 5e   325145671 4 A=A^
0090  53 20 42 3d 42 2d 43 20 43 3d 43 2d 41 20 41 3d   S B=B-C C=C-A A=
00a0  41 5e 42 00 88 ac ef d1 2a 22 56 18 55 a6 e9 07   A^B.....*"V.U...
00b0  0f 98 f2 d4 83 9c 31 bb e8 7f 77 3d 33 57 28 7d   ......1...w=3W(}
00c0  39 eb 9b 01 ea 0f ea 54 a2 d6 bc 30 ae 62 ea b0   9......T...0.b..
00d0  a9 bd b3 98 4b fc 96 eb fe a2 9e bb 04 e7 82 a0   ....K...........
00e0  92 f3 f8 d9 2b 33 62 f5 ff 54 0d 64 0a 75 bb a3   ....+3b..T.d.u..
00f0  dc 96 ec 2c d1 bc a1 53 5a a3 1e e8 fa ce 4f 03   ...,...SZ.....O.
0100  6b cc e7 c7 fc 96 4f f2 93 30 a1 d4 48 e5 89 87   k.....O..0..H...
0110  d7 56 0b 67 51 c8 07 22 d7 b7 b8 6e 25 50 1e a6   .V.gQ.."...n%P..
0120  b0 b2 09 23                                       ...#

Frame 12 (66 bytes on wire, 66 bytes captured)
Ethernet II, Src: 00:e0:4c:9d:47:c7, Dst: 00:50:f2:73:74:28
    Destination: 00:50:f2:73:74:28 (Microsof_73:74:28)
    Source: 00:e0:4c:9d:47:c7 (Realtek__9d:47:c7)
    Type: IP (0x0800)
Internet Protocol, Src Addr: 192.168.2.27 (192.168.2.27), Dst Addr: 63.240.202.126 (63.240.202.126)
    Version: 4
    Header length: 20 bytes
    Differentiated Services Field: 0x00 (DSCP 0x00: Default; ECN: 0x00)
        0000 00.. = Differentiated Services Codepoint: Default (0x00)
        .... ..0. = ECN-Capable Transport (ECT): 0
        .... ...0 = ECN-CE: 0
    Total Length: 52
    Identification: 0x5d1f
    Flags: 0x04
    Fragment offset: 0
    Time to live: 128
    Protocol: TCP (0x06)
    Header checksum: 0xd072 (correct)
    Source: 192.168.2.27 (192.168.2.27)
    Destination: 63.240.202.126 (63.240.202.126)
Transmission Control Protocol, Src Port: 2062 (2062), Dst Port: 6112 (6112), Seq: 1307580091, Ack: 1641979975, Len: 0
    Source port: 2062 (2062)
    Destination port: 6112 (6112)
    Sequence number: 1307580091
    Acknowledgement number: 1641979975
    Header length: 32 bytes
    Flags: 0x0010 (ACK)
    Window size: 32533
    Checksum: 0x5d4a (correct)
    Options: (12 bytes)

0000  00 50 f2 73 74 28 00 e0 4c 9d 47 c7 08 00 45 00   .P.st(..L.G...E.
0010  00 34 5d 1f 40 00 80 06 d0 72 c0 a8 02 1b 3f f0   .4].@....r....?.
0020  ca 7e 08 0e 17 e0 4d f0 16 bb 61 de a0 47 80 10   .~....M...a..G..
0030  7f 15 5d 4a 00 00 01 01 08 0a 00 8a d9 d6 02 09   ..]J............
0040  6a 02                                             j.

Frame 13 (74 bytes on wire, 74 bytes captured)
Ethernet II, Src: 00:e0:4c:9d:47:c7, Dst: 00:50:f2:73:74:28
    Destination: 00:50:f2:73:74:28 (Microsof_73:74:28)
    Source: 00:e0:4c:9d:47:c7 (Realtek__9d:47:c7)
    Type: IP (0x0800)
Internet Protocol, Src Addr: 192.168.2.27 (192.168.2.27), Dst Addr: 63.240.202.126 (63.240.202.126)
    Version: 4
    Header length: 20 bytes
    Differentiated Services Field: 0x00 (DSCP 0x00: Default; ECN: 0x00)
        0000 00.. = Differentiated Services Codepoint: Default (0x00)
        .... ..0. = ECN-Capable Transport (ECT): 0
        .... ...0 = ECN-CE: 0
    Total Length: 60
    Identification: 0x5d20
    Flags: 0x04
    Fragment offset: 0
    Time to live: 128
    Protocol: TCP (0x06)
    Header checksum: 0xd069 (correct)
    Source: 192.168.2.27 (192.168.2.27)
    Destination: 63.240.202.126 (63.240.202.126)
Transmission Control Protocol, Src Port: 2062 (2062), Dst Port: 6112 (6112), Seq: 1307580091, Ack: 1641979975, Len: 8
    Source port: 2062 (2062)
    Destination port: 6112 (6112)
    Sequence number: 1307580091
    Next sequence number: 1307580099
    Acknowledgement number: 1641979975
    Header length: 32 bytes
    Flags: 0x0018 (PSH, ACK)
    Window size: 32533
    Checksum: 0x266e (correct)
    Options: (12 bytes)
Data (8 bytes)

0000  00 50 f2 73 74 28 00 e0 4c 9d 47 c7 08 00 45 00   .P.st(..L.G...E.
0010  00 3c 5d 20 40 00 80 06 d0 69 c0 a8 02 1b 3f f0   .<] @....i....?.
0020  ca 7e 08 0e 17 e0 4d f0 16 bb 61 de a0 47 80 18   .~....M...a..G..
0030  7f 15 26 6e 00 00 01 01 08 0a 00 8a d9 d7 02 09   ..&n............
0040  6a 02 ff 25 08 00 0c 25 23 80                     j..%...%#.

Frame 15 (66 bytes on wire, 66 bytes captured)
Ethernet II, Src: 00:50:f2:73:74:28, Dst: 00:e0:4c:9d:47:c7
    Destination: 00:e0:4c:9d:47:c7 (Realtek__9d:47:c7)
    Source: 00:50:f2:73:74:28 (Microsof_73:74:28)
    Type: IP (0x0800)
Internet Protocol, Src Addr: 63.240.202.126 (63.240.202.126), Dst Addr: 192.168.2.27 (192.168.2.27)
    Version: 4
    Header length: 20 bytes
    Differentiated Services Field: 0x00 (DSCP 0x00: Default; ECN: 0x00)
        0000 00.. = Differentiated Services Codepoint: Default (0x00)
        .... ..0. = ECN-Capable Transport (ECT): 0
        .... ...0 = ECN-CE: 0
    Total Length: 52
    Identification: 0x984f
    Flags: 0x00
    Fragment offset: 0
    Time to live: 113
    Protocol: TCP (0x06)
    Header checksum: 0xe442 (correct)
    Source: 63.240.202.126 (63.240.202.126)
    Destination: 192.168.2.27 (192.168.2.27)
Transmission Control Protocol, Src Port: 6112 (6112), Dst Port: 2062 (2062), Seq: 1641979975, Ack: 1307580099, Len: 0
    Source port: 6112 (6112)
    Destination port: 2062 (2062)
    Sequence number: 1641979975
    Acknowledgement number: 1307580099
    Header length: 32 bytes
    Flags: 0x0010 (ACK)
    Window size: 65534
    Checksum: 0xdc57 (correct)
    Options: (12 bytes)

0000  00 e0 4c 9d 47 c7 00 50 f2 73 74 28 08 00 45 00   ..L.G..P.st(..E.
0010  00 34 98 4f 00 00 71 06 e4 42 3f f0 ca 7e c0 a8   .4.O..q..B?..~..
0020  02 1b 17 e0 08 0e 61 de a0 47 4d f0 16 c3 80 10   ......a..GM.....
0030  ff fe dc 57 00 00 01 01 08 0a 02 09 6a 02 00 8a   ...W........j...
0040  d9 d7                                             ..

Frame 20 (201 bytes on wire, 201 bytes captured)
Ethernet II, Src: 00:e0:4c:9d:47:c7, Dst: 00:50:f2:73:74:28
    Destination: 00:50:f2:73:74:28 (Microsof_73:74:28)
    Source: 00:e0:4c:9d:47:c7 (Realtek__9d:47:c7)
    Type: IP (0x0800)
Internet Protocol, Src Addr: 192.168.2.27 (192.168.2.27), Dst Addr: 63.240.202.126 (63.240.202.126)
    Version: 4
    Header length: 20 bytes
    Differentiated Services Field: 0x00 (DSCP 0x00: Default; ECN: 0x00)
        0000 00.. = Differentiated Services Codepoint: Default (0x00)
        .... ..0. = ECN-Capable Transport (ECT): 0
        .... ...0 = ECN-CE: 0
    Total Length: 187
    Identification: 0x5d23
    Flags: 0x04
    Fragment offset: 0
    Time to live: 128
    Protocol: TCP (0x06)
    Header checksum: 0xcfe7 (correct)
    Source: 192.168.2.27 (192.168.2.27)
    Destination: 63.240.202.126 (63.240.202.126)
Transmission Control Protocol, Src Port: 2062 (2062), Dst Port: 6112 (6112), Seq: 1307580099, Ack: 1641979975, Len: 135
    Source port: 2062 (2062)
    Destination port: 6112 (6112)
    Sequence number: 1307580099
    Next sequence number: 1307580234
    Acknowledgement number: 1641979975
    Header length: 32 bytes
    Flags: 0x0018 (PSH, ACK)
    Window size: 32533
    Checksum: 0xa8f0 (correct)
    Options: (12 bytes)
Data (135 bytes)

0000  00 50 f2 73 74 28 00 e0 4c 9d 47 c7 08 00 45 00   .P.st(..L.G...E.
0010  00 bb 5d 23 40 00 80 06 cf e7 c0 a8 02 1b 3f f0   ..]#@.........?.
0020  ca 7e 08 0e 17 e0 4d f0 16 c3 61 de a0 47 80 18   .~....M...a..G..
0030  7f 15 a8 f0 00 00 01 01 08 0a 00 8a d9 ec 02 09   ................
0040  6a 02 ff 51 87 00 bc 48 3d 36 94 0c 00 01 7b a4   j..Q...H=6....{.
0050  57 c5 02 00 00 00 00 00 00 00 1a 00 00 00 0e 00   W...............
0060  00 00 df 5e 24 00 00 00 00 00 ed ed 6c 45 16 76   ...^$.......lE.v
0070  74 6f ca 6f 2d 8c 1e 25 ce 74 ce e6 f1 49 1a 00   to.o-..%.t...I..
0080  00 00 12 00 00 00 59 12 23 00 00 00 00 00 80 e5   ......Y.#.......
0090  79 0c b2 ea 17 2d d8 73 95 55 59 f5 20 b4 31 f5   y....-.s.UY. .1.
00a0  33 19 57 61 72 33 2e 65 78 65 20 30 37 2f 32 32   3.War3.exe 07/22
00b0  2f 30 33 20 32 32 3a 34 33 3a 31 36 20 31 35 36   /03 22:43:16 156
00c0  38 32 31 31 00 42 6f 62 00                        8211.Bob.

Frame 21 (66 bytes on wire, 66 bytes captured)
Ethernet II, Src: 00:50:f2:73:74:28, Dst: 00:e0:4c:9d:47:c7
    Destination: 00:e0:4c:9d:47:c7 (Realtek__9d:47:c7)
    Source: 00:50:f2:73:74:28 (Microsof_73:74:28)
    Type: IP (0x0800)
Internet Protocol, Src Addr: 63.240.202.126 (63.240.202.126), Dst Addr: 192.168.2.27 (192.168.2.27)
    Version: 4
    Header length: 20 bytes
    Differentiated Services Field: 0x00 (DSCP 0x00: Default; ECN: 0x00)
        0000 00.. = Differentiated Services Codepoint: Default (0x00)
        .... ..0. = ECN-Capable Transport (ECT): 0
        .... ...0 = ECN-CE: 0
    Total Length: 52
    Identification: 0xa1ca
    Flags: 0x00
    Fragment offset: 0
    Time to live: 113
    Protocol: TCP (0x06)
    Header checksum: 0xdac7 (correct)
    Source: 63.240.202.126 (63.240.202.126)
    Destination: 192.168.2.27 (192.168.2.27)
Transmission Control Protocol, Src Port: 6112 (6112), Dst Port: 2062 (2062), Seq: 1641979975, Ack: 1307580234, Len: 0
    Source port: 6112 (6112)
    Destination port: 2062 (2062)
    Sequence number: 1641979975
    Acknowledgement number: 1307580234
    Header length: 32 bytes
    Flags: 0x0010 (ACK)
    Window size: 65534
    Checksum: 0xdba5 (correct)
    Options: (12 bytes)

0000  00 e0 4c 9d 47 c7 00 50 f2 73 74 28 08 00 45 00   ..L.G..P.st(..E.
0010  00 34 a1 ca 00 00 71 06 da c7 3f f0 ca 7e c0 a8   .4....q...?..~..
0020  02 1b 17 e0 08 0e 61 de a0 47 4d f0 17 4a 80 10   ......a..GM..J..
0030  ff fe db a5 00 00 01 01 08 0a 02 09 6a 18 00 8a   ............j...
0040  d9 ec                                             ..

Frame 22 (75 bytes on wire, 75 bytes captured)
Ethernet II, Src: 00:50:f2:73:74:28, Dst: 00:e0:4c:9d:47:c7
    Destination: 00:e0:4c:9d:47:c7 (Realtek__9d:47:c7)
    Source: 00:50:f2:73:74:28 (Microsof_73:74:28)
    Type: IP (0x0800)
Internet Protocol, Src Addr: 63.240.202.126 (63.240.202.126), Dst Addr: 192.168.2.27 (192.168.2.27)
    Version: 4
    Header length: 20 bytes
    Differentiated Services Field: 0x00 (DSCP 0x00: Default; ECN: 0x00)
        0000 00.. = Differentiated Services Codepoint: Default (0x00)
        .... ..0. = ECN-Capable Transport (ECT): 0
        .... ...0 = ECN-CE: 0
    Total Length: 61
    Identification: 0xa1d8
    Flags: 0x00
    Fragment offset: 0
    Time to live: 113
    Protocol: TCP (0x06)
    Header checksum: 0xdab0 (correct)
    Source: 63.240.202.126 (63.240.202.126)
    Destination: 192.168.2.27 (192.168.2.27)
Transmission Control Protocol, Src Port: 6112 (6112), Dst Port: 2062 (2062), Seq: 1641979975, Ack: 1307580234, Len: 9
    Source port: 6112 (6112)
    Destination port: 2062 (2062)
    Sequence number: 1641979975
    Next sequence number: 1641979984
    Acknowledgement number: 1307580234
    Header length: 32 bytes
    Flags: 0x0018 (PSH, ACK)
    Window size: 65534
    Checksum: 0xd342 (correct)
    Options: (12 bytes)
Data (9 bytes)

0000  00 e0 4c 9d 47 c7 00 50 f2 73 74 28 08 00 45 00   ..L.G..P.st(..E.
0010  00 3d a1 d8 00 00 71 06 da b0 3f f0 ca 7e c0 a8   .=....q...?..~..
0020  02 1b 17 e0 08 0e 61 de a0 47 4d f0 17 4a 80 18   ......a..GM..J..
0030  ff fe d3 42 00 00 01 01 08 0a 02 09 6a 18 00 8a   ...B........j...
0040  d9 ec ff 51 09 00 00 00 00 00 00                  ...Q.......

Frame 23 (102 bytes on wire, 102 bytes captured)
Ethernet II, Src: 00:e0:4c:9d:47:c7, Dst: 00:50:f2:73:74:28
    Destination: 00:50:f2:73:74:28 (Microsof_73:74:28)
    Source: 00:e0:4c:9d:47:c7 (Realtek__9d:47:c7)
    Type: IP (0x0800)
Internet Protocol, Src Addr: 192.168.2.27 (192.168.2.27), Dst Addr: 63.240.202.126 (63.240.202.126)
    Version: 4
    Header length: 20 bytes
    Differentiated Services Field: 0x00 (DSCP 0x00: Default; ECN: 0x00)
        0000 00.. = Differentiated Services Codepoint: Default (0x00)
        .... ..0. = ECN-Capable Transport (ECT): 0
        .... ...0 = ECN-CE: 0
    Total Length: 88
    Identification: 0x5d24
    Flags: 0x04
    Fragment offset: 0
    Time to live: 128
    Protocol: TCP (0x06)
    Header checksum: 0xd049 (correct)
    Source: 192.168.2.27 (192.168.2.27)
    Destination: 63.240.202.126 (63.240.202.126)
Transmission Control Protocol, Src Port: 2062 (2062), Dst Port: 6112 (6112), Seq: 1307580234, Ack: 1641979984, Len: 36
    Source port: 2062 (2062)
    Destination port: 6112 (6112)
    Sequence number: 1307580234
    Next sequence number: 1307580270
    Acknowledgement number: 1641979984
    Header length: 32 bytes
    Flags: 0x0018 (PSH, ACK)
    Window size: 32524
    Checksum: 0x60d5 (correct)
    Options: (12 bytes)
Data (36 bytes)

0000  00 50 f2 73 74 28 00 e0 4c 9d 47 c7 08 00 45 00   .P.st(..L.G...E.
0010  00 58 5d 24 40 00 80 06 d0 49 c0 a8 02 1b 3f f0   .X]$@....I....?.
0020  ca 7e 08 0e 17 e0 4d f0 17 4a 61 de a0 50 80 18   .~....M..Ja..P..
0030  7f 0c 60 d5 00 00 01 01 08 0a 00 8a d9 ed 02 09   ..`.............
0040  6a 18 ff 33 24 00 01 00 00 00 00 00 00 00 74 65   j..3$.........te
0050  72 6d 73 6f 66 73 65 72 76 69 63 65 2d 65 6e 55   rmsofservice-enU
0060  53 2e 74 78 74 00                                 S.txt.

Frame 24 (66 bytes on wire, 66 bytes captured)
Ethernet II, Src: 00:50:f2:73:74:28, Dst: 00:e0:4c:9d:47:c7
    Destination: 00:e0:4c:9d:47:c7 (Realtek__9d:47:c7)
    Source: 00:50:f2:73:74:28 (Microsof_73:74:28)
    Type: IP (0x0800)
Internet Protocol, Src Addr: 63.240.202.126 (63.240.202.126), Dst Addr: 192.168.2.27 (192.168.2.27)
    Version: 4
    Header length: 20 bytes
    Differentiated Services Field: 0x00 (DSCP 0x00: Default; ECN: 0x00)
        0000 00.. = Differentiated Services Codepoint: Default (0x00)
        .... ..0. = ECN-Capable Transport (ECT): 0
        .... ...0 = ECN-CE: 0
    Total Length: 52
    Identification: 0xa1fd
    Flags: 0x00
    Fragment offset: 0
    Time to live: 113
    Protocol: TCP (0x06)
    Header checksum: 0xda94 (correct)
    Source: 63.240.202.126 (63.240.202.126)
    Destination: 192.168.2.27 (192.168.2.27)
Transmission Control Protocol, Src Port: 6112 (6112), Dst Port: 2062 (2062), Seq: 1641979984, Ack: 1307580270, Len: 0
    Source port: 6112 (6112)
    Destination port: 2062 (2062)
    Sequence number: 1641979984
    Acknowledgement number: 1307580270
    Header length: 32 bytes
    Flags: 0x0010 (ACK)
    Window size: 65534
    Checksum: 0xdb77 (correct)
    Options: (12 bytes)

0000  00 e0 4c 9d 47 c7 00 50 f2 73 74 28 08 00 45 00   ..L.G..P.st(..E.
0010  00 34 a1 fd 00 00 71 06 da 94 3f f0 ca 7e c0 a8   .4....q...?..~..
0020  02 1b 17 e0 08 0e 61 de a0 50 4d f0 17 6e 80 10   ......a..PM..n..
0030  ff fe db 77 00 00 01 01 08 0a 02 09 6a 18 00 8a   ...w........j...
0040  d9 ed                                             ..

Frame 25 (137 bytes on wire, 137 bytes captured)
Ethernet II, Src: 00:e0:4c:9d:47:c7, Dst: 00:50:f2:73:74:28
    Destination: 00:50:f2:73:74:28 (Microsof_73:74:28)
    Source: 00:e0:4c:9d:47:c7 (Realtek__9d:47:c7)
    Type: IP (0x0800)
Internet Protocol, Src Addr: 192.168.2.27 (192.168.2.27), Dst Addr: 63.240.202.126 (63.240.202.126)
    Version: 4
    Header length: 20 bytes
    Differentiated Services Field: 0x00 (DSCP 0x00: Default; ECN: 0x00)
        0000 00.. = Differentiated Services Codepoint: Default (0x00)
        .... ..0. = ECN-Capable Transport (ECT): 0
        .... ...0 = ECN-CE: 0
    Total Length: 123
    Identification: 0x5d25
    Flags: 0x04
    Fragment offset: 0
    Time to live: 128
    Protocol: TCP (0x06)
    Header checksum: 0xd025 (correct)
    Source: 192.168.2.27 (192.168.2.27)
    Destination: 63.240.202.126 (63.240.202.126)
Transmission Control Protocol, Src Port: 2062 (2062), Dst Port: 6112 (6112), Seq: 1307580270, Ack: 1641979984, Len: 71
    Source port: 2062 (2062)
    Destination port: 6112 (6112)
    Sequence number: 1307580270
    Next sequence number: 1307580341
    Acknowledgement number: 1641979984
    Header length: 32 bytes
    Flags: 0x0018 (PSH, ACK)
    Window size: 32524
    Checksum: 0x2bc6 (correct)
    Options: (12 bytes)
Data (71 bytes)

0000  00 50 f2 73 74 28 00 e0 4c 9d 47 c7 08 00 45 00   .P.st(..L.G...E.
0010  00 7b 5d 25 40 00 80 06 d0 25 c0 a8 02 1b 3f f0   .{]%@....%....?.
0020  ca 7e 08 0e 17 e0 4d f0 17 6e 61 de a0 50 80 18   .~....M..na..P..
0030  7f 0c 2b c6 00 00 01 01 08 0a 00 8a d9 ed 02 09   ..+.............
0040  6a 18 ff 33 20 00 02 00 00 00 00 00 00 00 6e 65   j..3 .........ne
0050  77 61 63 63 6f 75 6e 74 2d 65 6e 55 53 2e 74 78   waccount-enUS.tx
0060  74 00 ff 33 23 00 03 00 00 00 00 00 00 00 63 68   t..3#.........ch
0070  61 74 68 65 6c 70 2d 77 61 72 33 2d 65 6e 55 53   athelp-war3-enUS
0080  2e 74 78 74 00 ff 2d 04 00                        .txt..-..

Frame 26 (110 bytes on wire, 110 bytes captured)
Ethernet II, Src: 00:50:f2:73:74:28, Dst: 00:e0:4c:9d:47:c7
    Destination: 00:e0:4c:9d:47:c7 (Realtek__9d:47:c7)
    Source: 00:50:f2:73:74:28 (Microsof_73:74:28)
    Type: IP (0x0800)
Internet Protocol, Src Addr: 63.240.202.126 (63.240.202.126), Dst Addr: 192.168.2.27 (192.168.2.27)
    Version: 4
    Header length: 20 bytes
    Differentiated Services Field: 0x00 (DSCP 0x00: Default; ECN: 0x00)
        0000 00.. = Differentiated Services Codepoint: Default (0x00)
        .... ..0. = ECN-Capable Transport (ECT): 0
        .... ...0 = ECN-CE: 0
    Total Length: 96
    Identification: 0xa1fe
    Flags: 0x00
    Fragment offset: 0
    Time to live: 113
    Protocol: TCP (0x06)
    Header checksum: 0xda67 (correct)
    Source: 63.240.202.126 (63.240.202.126)
    Destination: 192.168.2.27 (192.168.2.27)
Transmission Control Protocol, Src Port: 6112 (6112), Dst Port: 2062 (2062), Seq: 1641979984, Ack: 1307580270, Len: 44
    Source port: 6112 (6112)
    Destination port: 2062 (2062)
    Sequence number: 1641979984
    Next sequence number: 1641980028
    Acknowledgement number: 1307580270
    Header length: 32 bytes
    Flags: 0x0018 (PSH, ACK)
    Window size: 65534
    Checksum: 0x6236 (correct)
    Options: (12 bytes)
Data (44 bytes)

0000  00 e0 4c 9d 47 c7 00 50 f2 73 74 28 08 00 45 00   ..L.G..P.st(..E.
0010  00 60 a1 fe 00 00 71 06 da 67 3f f0 ca 7e c0 a8   .`....q..g?..~..
0020  02 1b 17 e0 08 0e 61 de a0 50 4d f0 17 6e 80 18   ......a..PM..n..
0030  ff fe 62 36 00 00 01 01 08 0a 02 09 6a 18 00 8a   ..b6........j...
0040  d9 ed ff 33 2c 00 01 00 00 00 00 00 00 00 00 16   ...3,...........
0050  7c 13 36 55 c3 01 74 65 72 6d 73 6f 66 73 65 72   |.6U..termsofser
0060  76 69 63 65 2d 65 6e 55 53 2e 74 78 74 00         vice-enUS.txt.

Frame 27 (66 bytes on wire, 66 bytes captured)
Ethernet II, Src: 00:50:f2:73:74:28, Dst: 00:e0:4c:9d:47:c7
    Destination: 00:e0:4c:9d:47:c7 (Realtek__9d:47:c7)
    Source: 00:50:f2:73:74:28 (Microsof_73:74:28)
    Type: IP (0x0800)
Internet Protocol, Src Addr: 63.240.202.126 (63.240.202.126), Dst Addr: 192.168.2.27 (192.168.2.27)
    Version: 4
    Header length: 20 bytes
    Differentiated Services Field: 0x00 (DSCP 0x00: Default; ECN: 0x00)
        0000 00.. = Differentiated Services Codepoint: Default (0x00)
        .... ..0. = ECN-Capable Transport (ECT): 0
        .... ...0 = ECN-CE: 0
    Total Length: 52
    Identification: 0xa22c
    Flags: 0x00
    Fragment offset: 0
    Time to live: 113
    Protocol: TCP (0x06)
    Header checksum: 0xda65 (correct)
    Source: 63.240.202.126 (63.240.202.126)
    Destination: 192.168.2.27 (192.168.2.27)
Transmission Control Protocol, Src Port: 6112 (6112), Dst Port: 2062 (2062), Seq: 1641980028, Ack: 1307580341, Len: 0
    Source port: 6112 (6112)
    Destination port: 2062 (2062)
    Sequence number: 1641980028
    Acknowledgement number: 1307580341
    Header length: 32 bytes
    Flags: 0x0010 (ACK)
    Window size: 65534
    Checksum: 0xdb03 (correct)
    Options: (12 bytes)

0000  00 e0 4c 9d 47 c7 00 50 f2 73 74 28 08 00 45 00   ..L.G..P.st(..E.
0010  00 34 a2 2c 00 00 71 06 da 65 3f f0 ca 7e c0 a8   .4.,..q..e?..~..
0020  02 1b 17 e0 08 0e 61 de a0 7c 4d f0 17 b5 80 10   ......a..|M.....
0030  ff fe db 03 00 00 01 01 08 0a 02 09 6a 19 00 8a   ............j...
0040  d9 ed                                             ..

Frame 28 (106 bytes on wire, 106 bytes captured)
Ethernet II, Src: 00:50:f2:73:74:28, Dst: 00:e0:4c:9d:47:c7
    Destination: 00:e0:4c:9d:47:c7 (Realtek__9d:47:c7)
    Source: 00:50:f2:73:74:28 (Microsof_73:74:28)
    Type: IP (0x0800)
Internet Protocol, Src Addr: 63.240.202.126 (63.240.202.126), Dst Addr: 192.168.2.27 (192.168.2.27)
    Version: 4
    Header length: 20 bytes
    Differentiated Services Field: 0x00 (DSCP 0x00: Default; ECN: 0x00)
        0000 00.. = Differentiated Services Codepoint: Default (0x00)
        .... ..0. = ECN-Capable Transport (ECT): 0
        .... ...0 = ECN-CE: 0
    Total Length: 92
    Identification: 0xa22e
    Flags: 0x00
    Fragment offset: 0
    Time to live: 113
    Protocol: TCP (0x06)
    Header checksum: 0xda3b (correct)
    Source: 63.240.202.126 (63.240.202.126)
    Destination: 192.168.2.27 (192.168.2.27)
Transmission Control Protocol, Src Port: 6112 (6112), Dst Port: 2062 (2062), Seq: 1641980028, Ack: 1307580341, Len: 40
    Source port: 6112 (6112)
    Destination port: 2062 (2062)
    Sequence number: 1641980028
    Next sequence number: 1641980068
    Acknowledgement number: 1307580341
    Header length: 32 bytes
    Flags: 0x0018 (PSH, ACK)
    Window size: 65534
    Checksum: 0xa7c1 (correct)
    Options: (12 bytes)
Data (40 bytes)

0000  00 e0 4c 9d 47 c7 00 50 f2 73 74 28 08 00 45 00   ..L.G..P.st(..E.
0010  00 5c a2 2e 00 00 71 06 da 3b 3f f0 ca 7e c0 a8   .\....q..;?..~..
0020  02 1b 17 e0 08 0e 61 de a0 7c 4d f0 17 b5 80 18   ......a..|M.....
0030  ff fe a7 c1 00 00 01 01 08 0a 02 09 6a 19 00 8a   ............j...
0040  d9 ed ff 33 28 00 02 00 00 00 00 00 00 00 00 72   ...3(..........r
0050  f4 d2 54 21 c2 01 6e 65 77 61 63 63 6f 75 6e 74   ..T!..newaccount
0060  2d 65 6e 55 53 2e 74 78 74 00                     -enUS.txt.

Frame 29 (66 bytes on wire, 66 bytes captured)
Ethernet II, Src: 00:e0:4c:9d:47:c7, Dst: 00:50:f2:73:74:28
    Destination: 00:50:f2:73:74:28 (Microsof_73:74:28)
    Source: 00:e0:4c:9d:47:c7 (Realtek__9d:47:c7)
    Type: IP (0x0800)
Internet Protocol, Src Addr: 192.168.2.27 (192.168.2.27), Dst Addr: 63.240.202.126 (63.240.202.126)
    Version: 4
    Header length: 20 bytes
    Differentiated Services Field: 0x00 (DSCP 0x00: Default; ECN: 0x00)
        0000 00.. = Differentiated Services Codepoint: Default (0x00)
        .... ..0. = ECN-Capable Transport (ECT): 0
        .... ...0 = ECN-CE: 0
    Total Length: 52
    Identification: 0x5d26
    Flags: 0x04
    Fragment offset: 0
    Time to live: 128
    Protocol: TCP (0x06)
    Header checksum: 0xd06b (correct)
    Source: 192.168.2.27 (192.168.2.27)
    Destination: 63.240.202.126 (63.240.202.126)
Transmission Control Protocol, Src Port: 2062 (2062), Dst Port: 6112 (6112), Seq: 1307580341, Ack: 1641980068, Len: 0
    Source port: 2062 (2062)
    Destination port: 6112 (6112)
    Sequence number: 1307580341
    Acknowledgement number: 1641980068
    Header length: 32 bytes
    Flags: 0x0010 (ACK)
    Window size: 32440
    Checksum: 0x5c21 (correct)
    Options: (12 bytes)

0000  00 50 f2 73 74 28 00 e0 4c 9d 47 c7 08 00 45 00   .P.st(..L.G...E.
0010  00 34 5d 26 40 00 80 06 d0 6b c0 a8 02 1b 3f f0   .4]&@....k....?.
0020  ca 7e 08 0e 17 e0 4d f0 17 b5 61 de a0 a4 80 10   .~....M...a.....
0030  7e b8 5c 21 00 00 01 01 08 0a 00 8a d9 ee 02 09   ~.\!............
0040  6a 19                                             j.

Frame 30 (109 bytes on wire, 109 bytes captured)
Ethernet II, Src: 00:50:f2:73:74:28, Dst: 00:e0:4c:9d:47:c7
    Destination: 00:e0:4c:9d:47:c7 (Realtek__9d:47:c7)
    Source: 00:50:f2:73:74:28 (Microsof_73:74:28)
    Type: IP (0x0800)
Internet Protocol, Src Addr: 63.240.202.126 (63.240.202.126), Dst Addr: 192.168.2.27 (192.168.2.27)
    Version: 4
    Header length: 20 bytes
    Differentiated Services Field: 0x00 (DSCP 0x00: Default; ECN: 0x00)
        0000 00.. = Differentiated Services Codepoint: Default (0x00)
        .... ..0. = ECN-Capable Transport (ECT): 0
        .... ...0 = ECN-CE: 0
    Total Length: 95
    Identification: 0xa22f
    Flags: 0x00
    Fragment offset: 0
    Time to live: 113
    Protocol: TCP (0x06)
    Header checksum: 0xda37 (correct)
    Source: 63.240.202.126 (63.240.202.126)
    Destination: 192.168.2.27 (192.168.2.27)
Transmission Control Protocol, Src Port: 6112 (6112), Dst Port: 2062 (2062), Seq: 1641980068, Ack: 1307580341, Len: 43
    Source port: 6112 (6112)
    Destination port: 2062 (2062)
    Sequence number: 1641980068
    Next sequence number: 1641980111
    Acknowledgement number: 1307580341
    Header length: 32 bytes
    Flags: 0x0018 (PSH, ACK)
    Window size: 65534
    Checksum: 0x03e8 (correct)
    Options: (12 bytes)
Data (43 bytes)

0000  00 e0 4c 9d 47 c7 00 50 f2 73 74 28 08 00 45 00   ..L.G..P.st(..E.
0010  00 5f a2 2f 00 00 71 06 da 37 3f f0 ca 7e c0 a8   ._./..q..7?..~..
0020  02 1b 17 e0 08 0e 61 de a0 a4 4d f0 17 b5 80 18   ......a...M.....
0030  ff fe 03 e8 00 00 01 01 08 0a 02 09 6a 19 00 8a   ............j...
0040  d9 ed ff 33 2b 00 03 00 00 00 00 00 00 00 00 46   ...3+..........F
0050  7c c3 ad 0d c2 01 63 68 61 74 68 65 6c 70 2d 77   |.....chathelp-w
0060  61 72 33 2d 65 6e 55 53 2e 74 78 74 00            ar3-enUS.txt.

Frame 31 (93 bytes on wire, 93 bytes captured)
Ethernet II, Src: 00:50:f2:73:74:28, Dst: 00:e0:4c:9d:47:c7
    Destination: 00:e0:4c:9d:47:c7 (Realtek__9d:47:c7)
    Source: 00:50:f2:73:74:28 (Microsof_73:74:28)
    Type: IP (0x0800)
Internet Protocol, Src Addr: 63.240.202.126 (63.240.202.126), Dst Addr: 192.168.2.27 (192.168.2.27)
    Version: 4
    Header length: 20 bytes
    Differentiated Services Field: 0x00 (DSCP 0x00: Default; ECN: 0x00)
        0000 00.. = Differentiated Services Codepoint: Default (0x00)
        .... ..0. = ECN-Capable Transport (ECT): 0
        .... ...0 = ECN-CE: 0
    Total Length: 79
    Identification: 0xa230
    Flags: 0x00
    Fragment offset: 0
    Time to live: 113
    Protocol: TCP (0x06)
    Header checksum: 0xda46 (correct)
    Source: 63.240.202.126 (63.240.202.126)
    Destination: 192.168.2.27 (192.168.2.27)
Transmission Control Protocol, Src Port: 6112 (6112), Dst Port: 2062 (2062), Seq: 1641980111, Ack: 1307580341, Len: 27
    Source port: 6112 (6112)
    Destination port: 2062 (2062)
    Sequence number: 1641980111
    Next sequence number: 1641980138
    Acknowledgement number: 1307580341
    Header length: 32 bytes
    Flags: 0x0018 (PSH, ACK)
    Window size: 65534
    Checksum: 0xc1f5 (correct)
    Options: (12 bytes)
Data (27 bytes)

0000  00 e0 4c 9d 47 c7 00 50 f2 73 74 28 08 00 45 00   ..L.G..P.st(..E.
0010  00 4f a2 30 00 00 71 06 da 46 3f f0 ca 7e c0 a8   .O.0..q..F?..~..
0020  02 1b 17 e0 08 0e 61 de a0 cf 4d f0 17 b5 80 18   ......a...M.....
0030  ff fe c1 f5 00 00 01 01 08 0a 02 09 6a 19 00 8a   ............j...
0040  d9 ed ff 2d 1b 00 00 e0 b8 f7 ef 50 c3 01 69 63   ...-.......P..ic
0050  6f 6e 73 2d 57 41 52 33 2e 62 6e 69 00            ons-WAR3.bni.

Frame 32 (66 bytes on wire, 66 bytes captured)
Ethernet II, Src: 00:e0:4c:9d:47:c7, Dst: 00:50:f2:73:74:28
    Destination: 00:50:f2:73:74:28 (Microsof_73:74:28)
    Source: 00:e0:4c:9d:47:c7 (Realtek__9d:47:c7)
    Type: IP (0x0800)
Internet Protocol, Src Addr: 192.168.2.27 (192.168.2.27), Dst Addr: 63.240.202.126 (63.240.202.126)
    Version: 4
    Header length: 20 bytes
    Differentiated Services Field: 0x00 (DSCP 0x00: Default; ECN: 0x00)
        0000 00.. = Differentiated Services Codepoint: Default (0x00)
        .... ..0. = ECN-Capable Transport (ECT): 0
        .... ...0 = ECN-CE: 0
    Total Length: 52
    Identification: 0x5d27
    Flags: 0x04
    Fragment offset: 0
    Time to live: 128
    Protocol: TCP (0x06)
    Header checksum: 0xd06a (correct)
    Source: 192.168.2.27 (192.168.2.27)
    Destination: 63.240.202.126 (63.240.202.126)
Transmission Control Protocol, Src Port: 2062 (2062), Dst Port: 6112 (6112), Seq: 1307580341, Ack: 1641980138, Len: 0
    Source port: 2062 (2062)
    Destination port: 6112 (6112)
    Sequence number: 1307580341
    Acknowledgement number: 1641980138
    Header length: 32 bytes
    Flags: 0x0010 (ACK)
    Window size: 32370
    Checksum: 0x5c21 (correct)
    Options: (12 bytes)

0000  00 50 f2 73 74 28 00 e0 4c 9d 47 c7 08 00 45 00   .P.st(..L.G...E.
0010  00 34 5d 27 40 00 80 06 d0 6a c0 a8 02 1b 3f f0   .4]'@....j....?.
0020  ca 7e 08 0e 17 e0 4d f0 17 b5 61 de a0 ea 80 10   .~....M...a.....
0030  7e 72 5c 21 00 00 01 01 08 0a 00 8a d9 ee 02 09   ~r\!............
0040  6a 19                                             j.

Frame 33 (96 bytes on wire, 96 bytes captured)
Ethernet II, Src: 00:e0:4c:9d:47:c7, Dst: 00:50:f2:73:74:28
    Destination: 00:50:f2:73:74:28 (Microsof_73:74:28)
    Source: 00:e0:4c:9d:47:c7 (Realtek__9d:47:c7)
    Type: IP (0x0800)
Internet Protocol, Src Addr: 192.168.2.27 (192.168.2.27), Dst Addr: 63.240.202.126 (63.240.202.126)
    Version: 4
    Header length: 20 bytes
    Differentiated Services Field: 0x00 (DSCP 0x00: Default; ECN: 0x00)
        0000 00.. = Differentiated Services Codepoint: Default (0x00)
        .... ..0. = ECN-Capable Transport (ECT): 0
        .... ...0 = ECN-CE: 0
    Total Length: 82
    Identification: 0x5d28
    Flags: 0x04
    Fragment offset: 0
    Time to live: 128
    Protocol: TCP (0x06)
    Header checksum: 0xd04b (correct)
    Source: 192.168.2.27 (192.168.2.27)
    Destination: 63.240.202.126 (63.240.202.126)
Transmission Control Protocol, Src Port: 2062 (2062), Dst Port: 6112 (6112), Seq: 1307580341, Ack: 1641980138, Len: 30
    Source port: 2062 (2062)
    Destination port: 6112 (6112)
    Sequence number: 1307580341
    Next sequence number: 1307580371
    Acknowledgement number: 1641980138
    Header length: 32 bytes
    Flags: 0x0018 (PSH, ACK)
    Window size: 32370
    Checksum: 0x17bb (correct)
    Options: (12 bytes)
Data (30 bytes)

0000  00 50 f2 73 74 28 00 e0 4c 9d 47 c7 08 00 45 00   .P.st(..L.G...E.
0010  00 52 5d 28 40 00 80 06 d0 4b c0 a8 02 1b 3f f0   .R](@....K....?.
0020  ca 7e 08 0e 17 e0 4d f0 17 b5 61 de a0 ea 80 18   .~....M...a.....
0030  7e 72 17 bb 00 00 01 01 08 0a 00 8a d9 f7 02 09   ~r..............
0040  6a 19 ff 33 1e 00 05 00 00 00 00 00 00 00 62 6e   j..3..........bn
0050  73 65 72 76 65 72 2d 57 41 52 33 2e 69 6e 69 00   server-WAR3.ini.

Frame 34 (66 bytes on wire, 66 bytes captured)
Ethernet II, Src: 00:50:f2:73:74:28, Dst: 00:e0:4c:9d:47:c7
    Destination: 00:e0:4c:9d:47:c7 (Realtek__9d:47:c7)
    Source: 00:50:f2:73:74:28 (Microsof_73:74:28)
    Type: IP (0x0800)
Internet Protocol, Src Addr: 63.240.202.126 (63.240.202.126), Dst Addr: 192.168.2.27 (192.168.2.27)
    Version: 4
    Header length: 20 bytes
    Differentiated Services Field: 0x00 (DSCP 0x00: Default; ECN: 0x00)
        0000 00.. = Differentiated Services Codepoint: Default (0x00)
        .... ..0. = ECN-Capable Transport (ECT): 0
        .... ...0 = ECN-CE: 0
    Total Length: 52
    Identification: 0xa758
    Flags: 0x00
    Fragment offset: 0
    Time to live: 113
    Protocol: TCP (0x06)
    Header checksum: 0xd539 (correct)
    Source: 63.240.202.126 (63.240.202.126)
    Destination: 192.168.2.27 (192.168.2.27)
Transmission Control Protocol, Src Port: 6112 (6112), Dst Port: 2062 (2062), Seq: 1641980138, Ack: 1307580371, Len: 0
    Source port: 6112 (6112)
    Destination port: 2062 (2062)
    Sequence number: 1641980138
    Acknowledgement number: 1307580371
    Header length: 32 bytes
    Flags: 0x0010 (ACK)
    Window size: 65534
    Checksum: 0xda63 (correct)
    Options: (12 bytes)

0000  00 e0 4c 9d 47 c7 00 50 f2 73 74 28 08 00 45 00   ..L.G..P.st(..E.
0010  00 34 a7 58 00 00 71 06 d5 39 3f f0 ca 7e c0 a8   .4.X..q..9?..~..
0020  02 1b 17 e0 08 0e 61 de a0 ea 4d f0 17 d3 80 10   ......a...M.....
0030  ff fe da 63 00 00 01 01 08 0a 02 09 6a 23 00 8a   ...c........j#..
0040  d9 f7                                             ..

Frame 35 (104 bytes on wire, 104 bytes captured)
Ethernet II, Src: 00:50:f2:73:74:28, Dst: 00:e0:4c:9d:47:c7
    Destination: 00:e0:4c:9d:47:c7 (Realtek__9d:47:c7)
    Source: 00:50:f2:73:74:28 (Microsof_73:74:28)
    Type: IP (0x0800)
Internet Protocol, Src Addr: 63.240.202.126 (63.240.202.126), Dst Addr: 192.168.2.27 (192.168.2.27)
    Version: 4
    Header length: 20 bytes
    Differentiated Services Field: 0x00 (DSCP 0x00: Default; ECN: 0x00)
        0000 00.. = Differentiated Services Codepoint: Default (0x00)
        .... ..0. = ECN-Capable Transport (ECT): 0
        .... ...0 = ECN-CE: 0
    Total Length: 90
    Identification: 0xa759
    Flags: 0x00
    Fragment offset: 0
    Time to live: 113
    Protocol: TCP (0x06)
    Header checksum: 0xd512 (correct)
    Source: 63.240.202.126 (63.240.202.126)
    Destination: 192.168.2.27 (192.168.2.27)
Transmission Control Protocol, Src Port: 6112 (6112), Dst Port: 2062 (2062), Seq: 1641980138, Ack: 1307580371, Len: 38
    Source port: 6112 (6112)
    Destination port: 2062 (2062)
    Sequence number: 1641980138
    Next sequence number: 1641980176
    Acknowledgement number: 1307580371
    Header length: 32 bytes
    Flags: 0x0018 (PSH, ACK)
    Window size: 65534
    Checksum: 0xb54a (correct)
    Options: (12 bytes)
Data (38 bytes)

0000  00 e0 4c 9d 47 c7 00 50 f2 73 74 28 08 00 45 00   ..L.G..P.st(..E.
0010  00 5a a7 59 00 00 71 06 d5 12 3f f0 ca 7e c0 a8   .Z.Y..q...?..~..
0020  02 1b 17 e0 08 0e 61 de a0 ea 4d f0 17 d3 80 18   ......a...M.....
0030  ff fe b5 4a 00 00 01 01 08 0a 02 09 6a 23 00 8a   ...J........j#..
0040  d9 f7 ff 33 26 00 05 00 00 00 00 00 00 00 00 b4   ...3&...........
0050  0e f1 07 0d c2 01 62 6e 73 65 72 76 65 72 2d 57   ......bnserver-W
0060  41 52 33 2e 69 6e 69 00                           AR3.ini.

Frame 36 (66 bytes on wire, 66 bytes captured)
Ethernet II, Src: 00:e0:4c:9d:47:c7, Dst: 00:50:f2:73:74:28
    Destination: 00:50:f2:73:74:28 (Microsof_73:74:28)
    Source: 00:e0:4c:9d:47:c7 (Realtek__9d:47:c7)
    Type: IP (0x0800)
Internet Protocol, Src Addr: 192.168.2.27 (192.168.2.27), Dst Addr: 63.240.202.126 (63.240.202.126)
    Version: 4
    Header length: 20 bytes
    Differentiated Services Field: 0x00 (DSCP 0x00: Default; ECN: 0x00)
        0000 00.. = Differentiated Services Codepoint: Default (0x00)
        .... ..0. = ECN-Capable Transport (ECT): 0
        .... ...0 = ECN-CE: 0
    Total Length: 52
    Identification: 0x5d29
    Flags: 0x04
    Fragment offset: 0
    Time to live: 128
    Protocol: TCP (0x06)
    Header checksum: 0xd068 (correct)
    Source: 192.168.2.27 (192.168.2.27)
    Destination: 63.240.202.126 (63.240.202.126)
Transmission Control Protocol, Src Port: 2062 (2062), Dst Port: 6112 (6112), Seq: 1307580371, Ack: 1641980176, Len: 0
    Source port: 2062 (2062)
    Destination port: 6112 (6112)
    Sequence number: 1307580371
    Acknowledgement number: 1641980176
    Header length: 32 bytes
    Flags: 0x0010 (ACK)
    Window size: 32332
    Checksum: 0x5bed (correct)
    Options: (12 bytes)

0000  00 50 f2 73 74 28 00 e0 4c 9d 47 c7 08 00 45 00   .P.st(..L.G...E.
0010  00 34 5d 29 40 00 80 06 d0 68 c0 a8 02 1b 3f f0   .4])@....h....?.
0020  ca 7e 08 0e 17 e0 4d f0 17 d3 61 de a1 10 80 10   .~....M...a.....
0030  7e 4c 5b ed 00 00 01 01 08 0a 00 8a d9 fa 02 09   ~L[.............
0040  6a 23                                             j#

Frame 46 (114 bytes on wire, 114 bytes captured)
Ethernet II, Src: 00:e0:4c:9d:47:c7, Dst: 00:50:f2:73:74:28
    Destination: 00:50:f2:73:74:28 (Microsof_73:74:28)
    Source: 00:e0:4c:9d:47:c7 (Realtek__9d:47:c7)
    Type: IP (0x0800)
Internet Protocol, Src Addr: 192.168.2.27 (192.168.2.27), Dst Addr: 63.240.202.126 (63.240.202.126)
    Version: 4
    Header length: 20 bytes
    Differentiated Services Field: 0x00 (DSCP 0x00: Default; ECN: 0x00)
        0000 00.. = Differentiated Services Codepoint: Default (0x00)
        .... ..0. = ECN-Capable Transport (ECT): 0
        .... ...0 = ECN-CE: 0
    Total Length: 100
    Identification: 0x5d2e
    Flags: 0x04
    Fragment offset: 0
    Time to live: 128
    Protocol: TCP (0x06)
    Header checksum: 0xd033 (correct)
    Source: 192.168.2.27 (192.168.2.27)
    Destination: 63.240.202.126 (63.240.202.126)
Transmission Control Protocol, Src Port: 2062 (2062), Dst Port: 6112 (6112), Seq: 1307580371, Ack: 1641980176, Len: 48
    Source port: 2062 (2062)
    Destination port: 6112 (6112)
    Sequence number: 1307580371
    Next sequence number: 1307580419
    Acknowledgement number: 1641980176
    Header length: 32 bytes
    Flags: 0x0018 (PSH, ACK)
    Window size: 32332
    Checksum: 0x3e64 (correct)
    Options: (12 bytes)
Data (48 bytes)

0000  00 50 f2 73 74 28 00 e0 4c 9d 47 c7 08 00 45 00   .P.st(..L.G...E.
0010  00 64 5d 2e 40 00 80 06 d0 33 c0 a8 02 1b 3f f0   .d].@....3....?.
0020  ca 7e 08 0e 17 e0 4d f0 17 d3 61 de a1 10 80 18   .~....M...a.....
0030  7e 4c 3e 64 00 00 01 01 08 0a 00 8a da 35 02 09   ~L>d.........5..
0040  6a 23 ff 53 30 00 6f 86 e2 19 90 c2 3e 1a 16 67   j#.S0.o.....>..g
0050  98 ec ea 3a 4f b1 80 8a c2 dd 8f 20 07 ea 33 65   ...:O...... ..3e
0060  86 d2 64 ab f0 ef 53 74 65 61 6c 74 68 29 44 4b   ..d...Stealth)DK
0070  28 00                                             (.

Frame 47 (66 bytes on wire, 66 bytes captured)
Ethernet II, Src: 00:50:f2:73:74:28, Dst: 00:e0:4c:9d:47:c7
    Destination: 00:e0:4c:9d:47:c7 (Realtek__9d:47:c7)
    Source: 00:50:f2:73:74:28 (Microsof_73:74:28)
    Type: IP (0x0800)
Internet Protocol, Src Addr: 63.240.202.126 (63.240.202.126), Dst Addr: 192.168.2.27 (192.168.2.27)
    Version: 4
    Header length: 20 bytes
    Differentiated Services Field: 0x00 (DSCP 0x00: Default; ECN: 0x00)
        0000 00.. = Differentiated Services Codepoint: Default (0x00)
        .... ..0. = ECN-Capable Transport (ECT): 0
        .... ...0 = ECN-CE: 0
    Total Length: 52
    Identification: 0xc713
    Flags: 0x00
    Fragment offset: 0
    Time to live: 113
    Protocol: TCP (0x06)
    Header checksum: 0xb57e (correct)
    Source: 63.240.202.126 (63.240.202.126)
    Destination: 192.168.2.27 (192.168.2.27)
Transmission Control Protocol, Src Port: 6112 (6112), Dst Port: 2062 (2062), Seq: 1641980176, Ack: 1307580419, Len: 0
    Source port: 6112 (6112)
    Destination port: 2062 (2062)
    Sequence number: 1641980176
    Acknowledgement number: 1307580419
    Header length: 32 bytes
    Flags: 0x0010 (ACK)
    Window size: 65534
    Checksum: 0xd992 (correct)
    Options: (12 bytes)

0000  00 e0 4c 9d 47 c7 00 50 f2 73 74 28 08 00 45 00   ..L.G..P.st(..E.
0010  00 34 c7 13 00 00 71 06 b5 7e 3f f0 ca 7e c0 a8   .4....q..~?..~..
0020  02 1b 17 e0 08 0e 61 de a1 10 4d f0 18 03 80 10   ......a...M.....
0030  ff fe d9 92 00 00 01 01 08 0a 02 09 6a 60 00 8a   ............j`..
0040  da 35                                             .5

Frame 48 (138 bytes on wire, 138 bytes captured)
Ethernet II, Src: 00:50:f2:73:74:28, Dst: 00:e0:4c:9d:47:c7
    Destination: 00:e0:4c:9d:47:c7 (Realtek__9d:47:c7)
    Source: 00:50:f2:73:74:28 (Microsof_73:74:28)
    Type: IP (0x0800)
Internet Protocol, Src Addr: 63.240.202.126 (63.240.202.126), Dst Addr: 192.168.2.27 (192.168.2.27)
    Version: 4
    Header length: 20 bytes
    Differentiated Services Field: 0x00 (DSCP 0x00: Default; ECN: 0x00)
        0000 00.. = Differentiated Services Codepoint: Default (0x00)
        .... ..0. = ECN-Capable Transport (ECT): 0
        .... ...0 = ECN-CE: 0
    Total Length: 124
    Identification: 0xc716
    Flags: 0x00
    Fragment offset: 0
    Time to live: 113
    Protocol: TCP (0x06)
    Header checksum: 0xb533 (correct)
    Source: 63.240.202.126 (63.240.202.126)
    Destination: 192.168.2.27 (192.168.2.27)
Transmission Control Protocol, Src Port: 6112 (6112), Dst Port: 2062 (2062), Seq: 1641980176, Ack: 1307580419, Len: 72
    Source port: 6112 (6112)
    Destination port: 2062 (2062)
    Sequence number: 1641980176
    Next sequence number: 1641980248
    Acknowledgement number: 1307580419
    Header length: 32 bytes
    Flags: 0x0018 (PSH, ACK)
    Window size: 65534
    Checksum: 0x6664 (correct)
    Options: (12 bytes)
Data (72 bytes)

0000  00 e0 4c 9d 47 c7 00 50 f2 73 74 28 08 00 45 00   ..L.G..P.st(..E.
0010  00 7c c7 16 00 00 71 06 b5 33 3f f0 ca 7e c0 a8   .|....q..3?..~..
0020  02 1b 17 e0 08 0e 61 de a1 10 4d f0 18 03 80 18   ......a...M.....
0030  ff fe 66 64 00 00 01 01 08 0a 02 09 6a 60 00 8a   ..fd........j`..
0040  da 35 ff 53 48 00 00 00 00 00 21 37 7a da 1e 47   .5.SH.....!7z..G
0050  53 c3 5f 72 59 e5 24 50 a3 89 2e 40 d2 98 05 9b   S._rY.$P...@....
0060  3f aa 55 9b cb f5 d9 c1 28 bf 30 3c 8b 14 32 4c   ?.U.....(.0<..2L
0070  11 5e 5c 95 2b a9 cc ee 32 c4 20 f6 1b 61 b4 2b   .^\.+...2. ..a.+
0080  c0 76 2f 85 86 b6 c7 59 7c 90                     .v/....Y|.

Frame 49 (90 bytes on wire, 90 bytes captured)
Ethernet II, Src: 00:e0:4c:9d:47:c7, Dst: 00:50:f2:73:74:28
    Destination: 00:50:f2:73:74:28 (Microsof_73:74:28)
    Source: 00:e0:4c:9d:47:c7 (Realtek__9d:47:c7)
    Type: IP (0x0800)
Internet Protocol, Src Addr: 192.168.2.27 (192.168.2.27), Dst Addr: 63.240.202.126 (63.240.202.126)
    Version: 4
    Header length: 20 bytes
    Differentiated Services Field: 0x00 (DSCP 0x00: Default; ECN: 0x00)
        0000 00.. = Differentiated Services Codepoint: Default (0x00)
        .... ..0. = ECN-Capable Transport (ECT): 0
        .... ...0 = ECN-CE: 0
    Total Length: 76
    Identification: 0x5d2f
    Flags: 0x04
    Fragment offset: 0
    Time to live: 128
    Protocol: TCP (0x06)
    Header checksum: 0xd04a (correct)
    Source: 192.168.2.27 (192.168.2.27)
    Destination: 63.240.202.126 (63.240.202.126)
Transmission Control Protocol, Src Port: 2062 (2062), Dst Port: 6112 (6112), Seq: 1307580419, Ack: 1641980248, Len: 24
    Source port: 2062 (2062)
    Destination port: 6112 (6112)
    Sequence number: 1307580419
    Next sequence number: 1307580443
    Acknowledgement number: 1641980248
    Header length: 32 bytes
    Flags: 0x0018 (PSH, ACK)
    Window size: 32260
    Checksum: 0xa535 (correct)
    Options: (12 bytes)
Data (24 bytes)

0000  00 50 f2 73 74 28 00 e0 4c 9d 47 c7 08 00 45 00   .P.st(..L.G...E.
0010  00 4c 5d 2f 40 00 80 06 d0 4a c0 a8 02 1b 3f f0   .L]/@....J....?.
0020  ca 7e 08 0e 17 e0 4d f0 18 03 61 de a1 58 80 18   .~....M...a..X..
0030  7e 04 a5 35 00 00 01 01 08 0a 00 8a da 35 02 09   ~..5.........5..
0040  6a 60 ff 54 18 00 a8 eb ae 02 dd 17 f0 3a b0 4b   j`.T.........:.K
0050  aa 98 8f 56 7e 57 02 4f 0f 78                     ...V~W.O.x

Frame 50 (66 bytes on wire, 66 bytes captured)
Ethernet II, Src: 00:50:f2:73:74:28, Dst: 00:e0:4c:9d:47:c7
    Destination: 00:e0:4c:9d:47:c7 (Realtek__9d:47:c7)
    Source: 00:50:f2:73:74:28 (Microsof_73:74:28)
    Type: IP (0x0800)
Internet Protocol, Src Addr: 63.240.202.126 (63.240.202.126), Dst Addr: 192.168.2.27 (192.168.2.27)
    Version: 4
    Header length: 20 bytes
    Differentiated Services Field: 0x00 (DSCP 0x00: Default; ECN: 0x00)
        0000 00.. = Differentiated Services Codepoint: Default (0x00)
        .... ..0. = ECN-Capable Transport (ECT): 0
        .... ...0 = ECN-CE: 0
    Total Length: 52
    Identification: 0xc74b
    Flags: 0x00
    Fragment offset: 0
    Time to live: 113
    Protocol: TCP (0x06)
    Header checksum: 0xb546 (correct)
    Source: 63.240.202.126 (63.240.202.126)
    Destination: 192.168.2.27 (192.168.2.27)
Transmission Control Protocol, Src Port: 6112 (6112), Dst Port: 2062 (2062), Seq: 1641980248, Ack: 1307580443, Len: 0
    Source port: 6112 (6112)
    Destination port: 2062 (2062)
    Sequence number: 1641980248
    Acknowledgement number: 1307580443
    Header length: 32 bytes
    Flags: 0x0010 (ACK)
    Window size: 65534
    Checksum: 0xd931 (correct)
    Options: (12 bytes)

0000  00 e0 4c 9d 47 c7 00 50 f2 73 74 28 08 00 45 00   ..L.G..P.st(..E.
0010  00 34 c7 4b 00 00 71 06 b5 46 3f f0 ca 7e c0 a8   .4.K..q..F?..~..
0020  02 1b 17 e0 08 0e 61 de a1 58 4d f0 18 1b 80 10   ......a..XM.....
0030  ff fe d9 31 00 00 01 01 08 0a 02 09 6a 61 00 8a   ...1........ja..
0040  da 35                                             .5

Frame 51 (94 bytes on wire, 94 bytes captured)
Ethernet II, Src: 00:50:f2:73:74:28, Dst: 00:e0:4c:9d:47:c7
    Destination: 00:e0:4c:9d:47:c7 (Realtek__9d:47:c7)
    Source: 00:50:f2:73:74:28 (Microsof_73:74:28)
    Type: IP (0x0800)
Internet Protocol, Src Addr: 63.240.202.126 (63.240.202.126), Dst Addr: 192.168.2.27 (192.168.2.27)
    Version: 4
    Header length: 20 bytes
    Differentiated Services Field: 0x00 (DSCP 0x00: Default; ECN: 0x00)
        0000 00.. = Differentiated Services Codepoint: Default (0x00)
        .... ..0. = ECN-Capable Transport (ECT): 0
        .... ...0 = ECN-CE: 0
    Total Length: 80
    Identification: 0xc756
    Flags: 0x00
    Fragment offset: 0
    Time to live: 113
    Protocol: TCP (0x06)
    Header checksum: 0xb51f (correct)
    Source: 63.240.202.126 (63.240.202.126)
    Destination: 192.168.2.27 (192.168.2.27)
Transmission Control Protocol, Src Port: 6112 (6112), Dst Port: 2062 (2062), Seq: 1641980248, Ack: 1307580443, Len: 28
    Source port: 6112 (6112)
    Destination port: 2062 (2062)
    Sequence number: 1641980248
    Next sequence number: 1641980276
    Acknowledgement number: 1307580443
    Header length: 32 bytes
    Flags: 0x0018 (PSH, ACK)
    Window size: 65534
    Checksum: 0x413c (correct)
    Options: (12 bytes)
Data (28 bytes)

0000  00 e0 4c 9d 47 c7 00 50 f2 73 74 28 08 00 45 00   ..L.G..P.st(..E.
0010  00 50 c7 56 00 00 71 06 b5 1f 3f f0 ca 7e c0 a8   .P.V..q...?..~..
0020  02 1b 17 e0 08 0e 61 de a1 58 4d f0 18 1b 80 18   ......a..XM.....
0030  ff fe 41 3c 00 00 01 01 08 0a 02 09 6a 61 00 8a   ..A<........ja..
0040  da 35 ff 54 1c 00 00 00 00 00 99 4f 1d 41 bc 0c   .5.T.......O.A..
0050  e8 0b 1f dc 2d de 12 4c f9 ab 37 a7 90 79         ....-..L..7..y

Frame 52 (76 bytes on wire, 76 bytes captured)
Ethernet II, Src: 00:50:f2:73:74:28, Dst: 00:e0:4c:9d:47:c7
    Destination: 00:e0:4c:9d:47:c7 (Realtek__9d:47:c7)
    Source: 00:50:f2:73:74:28 (Microsof_73:74:28)
    Type: IP (0x0800)
Internet Protocol, Src Addr: 63.240.202.126 (63.240.202.126), Dst Addr: 192.168.2.27 (192.168.2.27)
    Version: 4
    Header length: 20 bytes
    Differentiated Services Field: 0x00 (DSCP 0x00: Default; ECN: 0x00)
        0000 00.. = Differentiated Services Codepoint: Default (0x00)
        .... ..0. = ECN-Capable Transport (ECT): 0
        .... ...0 = ECN-CE: 0
    Total Length: 62
    Identification: 0xc757
    Flags: 0x00
    Fragment offset: 0
    Time to live: 113
    Protocol: TCP (0x06)
    Header checksum: 0xb530 (correct)
    Source: 63.240.202.126 (63.240.202.126)
    Destination: 192.168.2.27 (192.168.2.27)
Transmission Control Protocol, Src Port: 6112 (6112), Dst Port: 2062 (2062), Seq: 1641980276, Ack: 1307580443, Len: 10
    Source port: 6112 (6112)
    Destination port: 2062 (2062)
    Sequence number: 1641980276
    Next sequence number: 1641980286
    Acknowledgement number: 1307580443
    Header length: 32 bytes
    Flags: 0x0018 (PSH, ACK)
    Window size: 65534
    Checksum: 0x5207 (correct)
    Options: (12 bytes)
Data (10 bytes)

0000  00 e0 4c 9d 47 c7 00 50 f2 73 74 28 08 00 45 00   ..L.G..P.st(..E.
0010  00 3e c7 57 00 00 71 06 b5 30 3f f0 ca 7e c0 a8   .>.W..q..0?..~..
0020  02 1b 17 e0 08 0e 61 de a1 74 4d f0 18 1b 80 18   ......a..tM.....
0030  ff fe 52 07 00 00 01 01 08 0a 02 09 6a 61 00 8a   ..R.........ja..
0040  da 35 ff 75 0a 00 00 38 39 4b 44 03               .5.u...89KD.

Frame 53 (66 bytes on wire, 66 bytes captured)
Ethernet II, Src: 00:e0:4c:9d:47:c7, Dst: 00:50:f2:73:74:28
    Destination: 00:50:f2:73:74:28 (Microsof_73:74:28)
    Source: 00:e0:4c:9d:47:c7 (Realtek__9d:47:c7)
    Type: IP (0x0800)
Internet Protocol, Src Addr: 192.168.2.27 (192.168.2.27), Dst Addr: 63.240.202.126 (63.240.202.126)
    Version: 4
    Header length: 20 bytes
    Differentiated Services Field: 0x00 (DSCP 0x00: Default; ECN: 0x00)
        0000 00.. = Differentiated Services Codepoint: Default (0x00)
        .... ..0. = ECN-Capable Transport (ECT): 0
        .... ...0 = ECN-CE: 0
    Total Length: 52
    Identification: 0x5d30
    Flags: 0x04
    Fragment offset: 0
    Time to live: 128
    Protocol: TCP (0x06)
    Header checksum: 0xd061 (correct)
    Source: 192.168.2.27 (192.168.2.27)
    Destination: 63.240.202.126 (63.240.202.126)
Transmission Control Protocol, Src Port: 2062 (2062), Dst Port: 6112 (6112), Seq: 1307580443, Ack: 1641980286, Len: 0
    Source port: 2062 (2062)
    Destination port: 6112 (6112)
    Sequence number: 1307580443
    Acknowledgement number: 1641980286
    Header length: 32 bytes
    Flags: 0x0010 (ACK)
    Window size: 32222
    Checksum: 0x5b2b (correct)
    Options: (12 bytes)

0000  00 50 f2 73 74 28 00 e0 4c 9d 47 c7 08 00 45 00   .P.st(..L.G...E.
0010  00 34 5d 30 40 00 80 06 d0 61 c0 a8 02 1b 3f f0   .4]0@....a....?.
0020  ca 7e 08 0e 17 e0 4d f0 18 1b 61 de a1 7e 80 10   .~....M...a..~..
0030  7d de 5b 2b 00 00 01 01 08 0a 00 8a da 36 02 09   }.[+.........6..
0040  6a 61                                             ja

Frame 54 (72 bytes on wire, 72 bytes captured)
Ethernet II, Src: 00:e0:4c:9d:47:c7, Dst: 00:50:f2:73:74:28
    Destination: 00:50:f2:73:74:28 (Microsof_73:74:28)
    Source: 00:e0:4c:9d:47:c7 (Realtek__9d:47:c7)
    Type: IP (0x0800)
Internet Protocol, Src Addr: 192.168.2.27 (192.168.2.27), Dst Addr: 63.240.202.126 (63.240.202.126)
    Version: 4
    Header length: 20 bytes
    Differentiated Services Field: 0x00 (DSCP 0x00: Default; ECN: 0x00)
        0000 00.. = Differentiated Services Codepoint: Default (0x00)
        .... ..0. = ECN-Capable Transport (ECT): 0
        .... ...0 = ECN-CE: 0
    Total Length: 58
    Identification: 0x5d31
    Flags: 0x04
    Fragment offset: 0
    Time to live: 128
    Protocol: TCP (0x06)
    Header checksum: 0xd05a (correct)
    Source: 192.168.2.27 (192.168.2.27)
    Destination: 63.240.202.126 (63.240.202.126)
Transmission Control Protocol, Src Port: 2062 (2062), Dst Port: 6112 (6112), Seq: 1307580443, Ack: 1641980286, Len: 6
    Source port: 2062 (2062)
    Destination port: 6112 (6112)
    Sequence number: 1307580443
    Next sequence number: 1307580449
    Acknowledgement number: 1641980286
    Header length: 32 bytes
    Flags: 0x0018 (PSH, ACK)
    Window size: 32222
    Checksum: 0x75bf (correct)
    Options: (12 bytes)
Data (6 bytes)

0000  00 50 f2 73 74 28 00 e0 4c 9d 47 c7 08 00 45 00   .P.st(..L.G...E.
0010  00 3a 5d 31 40 00 80 06 d0 5a c0 a8 02 1b 3f f0   .:]1@....Z....?.
0020  ca 7e 08 0e 17 e0 4d f0 18 1b 61 de a1 7e 80 18   .~....M...a..~..
0030  7d de 75 bf 00 00 01 01 08 0a 00 8a da 36 02 09   }.u..........6..
0040  6a 61 ff 45 06 00 e0 17                           ja.E....

Frame 55 (66 bytes on wire, 66 bytes captured)
Ethernet II, Src: 00:50:f2:73:74:28, Dst: 00:e0:4c:9d:47:c7
    Destination: 00:e0:4c:9d:47:c7 (Realtek__9d:47:c7)
    Source: 00:50:f2:73:74:28 (Microsof_73:74:28)
    Type: IP (0x0800)
Internet Protocol, Src Addr: 63.240.202.126 (63.240.202.126), Dst Addr: 192.168.2.27 (192.168.2.27)
    Version: 4
    Header length: 20 bytes
    Differentiated Services Field: 0x00 (DSCP 0x00: Default; ECN: 0x00)
        0000 00.. = Differentiated Services Codepoint: Default (0x00)
        .... ..0. = ECN-Capable Transport (ECT): 0
        .... ...0 = ECN-CE: 0
    Total Length: 52
    Identification: 0xc7b4
    Flags: 0x00
    Fragment offset: 0
    Time to live: 113
    Protocol: TCP (0x06)
    Header checksum: 0xb4dd (correct)
    Source: 63.240.202.126 (63.240.202.126)
    Destination: 192.168.2.27 (192.168.2.27)
Transmission Control Protocol, Src Port: 6112 (6112), Dst Port: 2062 (2062), Seq: 1641980286, Ack: 1307580449, Len: 0
    Source port: 6112 (6112)
    Destination port: 2062 (2062)
    Sequence number: 1641980286
    Acknowledgement number: 1307580449
    Header length: 32 bytes
    Flags: 0x0010 (ACK)
    Window size: 65534
    Checksum: 0xd904 (correct)
    Options: (12 bytes)

0000  00 e0 4c 9d 47 c7 00 50 f2 73 74 28 08 00 45 00   ..L.G..P.st(..E.
0010  00 34 c7 b4 00 00 71 06 b4 dd 3f f0 ca 7e c0 a8   .4....q...?..~..
0020  02 1b 17 e0 08 0e 61 de a1 7e 4d f0 18 21 80 10   ......a..~M..!..
0030  ff fe d9 04 00 00 01 01 08 0a 02 09 6a 61 00 8a   ............ja..
0040  da 36                                             .6

Frame 56 (116 bytes on wire, 116 bytes captured)
Ethernet II, Src: 00:e0:4c:9d:47:c7, Dst: 00:50:f2:73:74:28
    Destination: 00:50:f2:73:74:28 (Microsof_73:74:28)
    Source: 00:e0:4c:9d:47:c7 (Realtek__9d:47:c7)
    Type: IP (0x0800)
Internet Protocol, Src Addr: 192.168.2.27 (192.168.2.27), Dst Addr: 63.240.202.126 (63.240.202.126)
    Version: 4
    Header length: 20 bytes
    Differentiated Services Field: 0x00 (DSCP 0x00: Default; ECN: 0x00)
        0000 00.. = Differentiated Services Codepoint: Default (0x00)
        .... ..0. = ECN-Capable Transport (ECT): 0
        .... ...0 = ECN-CE: 0
    Total Length: 102
    Identification: 0x5d32
    Flags: 0x04
    Fragment offset: 0
    Time to live: 128
    Protocol: TCP (0x06)
    Header checksum: 0xd02d (correct)
    Source: 192.168.2.27 (192.168.2.27)
    Destination: 63.240.202.126 (63.240.202.126)
Transmission Control Protocol, Src Port: 2062 (2062), Dst Port: 6112 (6112), Seq: 1307580449, Ack: 1641980286, Len: 50
    Source port: 2062 (2062)
    Destination port: 6112 (6112)
    Sequence number: 1307580449
    Next sequence number: 1307580499
    Acknowledgement number: 1641980286
    Header length: 32 bytes
    Flags: 0x0018 (PSH, ACK)
    Window size: 32222
    Checksum: 0x2e3f (correct)
    Options: (12 bytes)
Data (50 bytes)

0000  00 50 f2 73 74 28 00 e0 4c 9d 47 c7 08 00 45 00   .P.st(..L.G...E.
0010  00 66 5d 32 40 00 80 06 d0 2d c0 a8 02 1b 3f f0   .f]2@....-....?.
0020  ca 7e 08 0e 17 e0 4d f0 18 21 61 de a1 7e 80 18   .~....M..!a..~..
0030  7d de 2e 3f 00 00 01 01 08 0a 00 8a da 36 02 09   }..?.........6..
0040  6a 61 ff 44 32 00 02 01 00 00 00 05 4c 52 55 00   ja.D2.......LRU.
0050  00 00 00 00 50 41 4d 00 00 00 00 00 45 50 59 54   ....PAM.....EPYT
0060  00 00 00 00 43 53 45 44 00 00 00 00 52 44 41 4c   ....CSED....RDAL
0070  00 00 00 00                                       ....

Frame 57 (66 bytes on wire, 66 bytes captured)
Ethernet II, Src: 00:50:f2:73:74:28, Dst: 00:e0:4c:9d:47:c7
    Destination: 00:e0:4c:9d:47:c7 (Realtek__9d:47:c7)
    Source: 00:50:f2:73:74:28 (Microsof_73:74:28)
    Type: IP (0x0800)
Internet Protocol, Src Addr: 63.240.202.126 (63.240.202.126), Dst Addr: 192.168.2.27 (192.168.2.27)
    Version: 4
    Header length: 20 bytes
    Differentiated Services Field: 0x00 (DSCP 0x00: Default; ECN: 0x00)
        0000 00.. = Differentiated Services Codepoint: Default (0x00)
        .... ..0. = ECN-Capable Transport (ECT): 0
        .... ...0 = ECN-CE: 0
    Total Length: 52
    Identification: 0xc7e6
    Flags: 0x00
    Fragment offset: 0
    Time to live: 113
    Protocol: TCP (0x06)
    Header checksum: 0xb4ab (correct)
    Source: 63.240.202.126 (63.240.202.126)
    Destination: 192.168.2.27 (192.168.2.27)
Transmission Control Protocol, Src Port: 6112 (6112), Dst Port: 2062 (2062), Seq: 1641980286, Ack: 1307580499, Len: 0
    Source port: 6112 (6112)
    Destination port: 2062 (2062)
    Sequence number: 1641980286
    Acknowledgement number: 1307580499
    Header length: 32 bytes
    Flags: 0x0010 (ACK)
    Window size: 65534
    Checksum: 0xd8d1 (correct)
    Options: (12 bytes)

0000  00 e0 4c 9d 47 c7 00 50 f2 73 74 28 08 00 45 00   ..L.G..P.st(..E.
0010  00 34 c7 e6 00 00 71 06 b4 ab 3f f0 ca 7e c0 a8   .4....q...?..~..
0020  02 1b 17 e0 08 0e 61 de a1 7e 4d f0 18 53 80 10   ......a..~M..S..
0030  ff fe d8 d1 00 00 01 01 08 0a 02 09 6a 62 00 8a   ............jb..
0040  da 36                                             .6

Frame 58 (312 bytes on wire, 312 bytes captured)
Ethernet II, Src: 00:50:f2:73:74:28, Dst: 00:e0:4c:9d:47:c7
    Destination: 00:e0:4c:9d:47:c7 (Realtek__9d:47:c7)
    Source: 00:50:f2:73:74:28 (Microsof_73:74:28)
    Type: IP (0x0800)
Internet Protocol, Src Addr: 63.240.202.126 (63.240.202.126), Dst Addr: 192.168.2.27 (192.168.2.27)
    Version: 4
    Header length: 20 bytes
    Differentiated Services Field: 0x00 (DSCP 0x00: Default; ECN: 0x00)
        0000 00.. = Differentiated Services Codepoint: Default (0x00)
        .... ..0. = ECN-Capable Transport (ECT): 0
        .... ...0 = ECN-CE: 0
    Total Length: 298
    Identification: 0xc851
    Flags: 0x00
    Fragment offset: 0
    Time to live: 113
    Protocol: TCP (0x06)
    Header checksum: 0xb34a (correct)
    Source: 63.240.202.126 (63.240.202.126)
    Destination: 192.168.2.27 (192.168.2.27)
Transmission Control Protocol, Src Port: 6112 (6112), Dst Port: 2062 (2062), Seq: 1641980286, Ack: 1307580499, Len: 246
    Source port: 6112 (6112)
    Destination port: 2062 (2062)
    Sequence number: 1641980286
    Next sequence number: 1641980532
    Acknowledgement number: 1307580499
    Header length: 32 bytes
    Flags: 0x0018 (PSH, ACK)
    Window size: 65534
    Checksum: 0x4c22 (correct)
    Options: (12 bytes)
Data (246 bytes)

0000  00 e0 4c 9d 47 c7 00 50 f2 73 74 28 08 00 45 00   ..L.G..P.st(..E.
0010  01 2a c8 51 00 00 71 06 b3 4a 3f f0 ca 7e c0 a8   .*.Q..q..J?..~..
0020  02 1b 17 e0 08 0e 61 de a1 7e 4d f0 18 53 80 18   ......a..~M..S..
0030  ff fe 4c 22 00 00 01 01 08 0a 02 09 6a 64 00 8a   ..L"........jd..
0040  da 36 ff 44 f6 00 02 01 00 00 00 01 4c 52 55 00   .6.D........LRU.
0050  74 72 c6 f7 68 74 74 70 3a 2f 2f 77 77 77 2e 62   tr..http://www.b
0060  61 74 74 6c 65 2e 6e 65 74 2f 77 61 72 33 2f 6c   attle.net/war3/l
0070  61 64 64 65 72 2f 77 33 78 70 2d 6c 61 64 64 65   adder/w3xp-ladde
0080  72 73 2e 61 73 70 78 3f 47 61 74 65 77 61 79 3d   rs.aspx?Gateway=
0090  41 7a 65 72 6f 74 68 00 68 74 74 70 3a 2f 2f 77   Azeroth.http://w
00a0  77 77 2e 62 61 74 74 6c 65 2e 6e 65 74 2f 77 61   ww.battle.net/wa
00b0  72 33 2f 6c 61 64 64 65 72 2f 77 33 78 70 2d 70   r3/ladder/w3xp-p
00c0  6c 61 79 65 72 2d 70 72 6f 66 69 6c 65 2e 61 73   layer-profile.as
00d0  70 78 3f 47 61 74 65 77 61 79 3d 41 7a 65 72 6f   px?Gateway=Azero
00e0  74 68 26 50 6c 61 79 65 72 4e 61 6d 65 3d 00 68   th&PlayerName=.h
00f0  74 74 70 3a 2f 2f 77 77 77 2e 62 61 74 74 6c 65   ttp://www.battle
0100  2e 6e 65 74 2f 77 61 72 33 2f 6c 61 64 64 65 72   .net/war3/ladder
0110  2f 77 33 78 70 2d 74 6f 75 72 6e 61 6d 65 6e 74   /w3xp-tournament
0120  73 2e 61 73 70 78 3f 47 61 74 65 77 61 79 3d 41   s.aspx?Gateway=A
0130  7a 65 72 6f 74 68 00 01                           zeroth..

Frame 59 (590 bytes on wire, 590 bytes captured)
Ethernet II, Src: 00:50:f2:73:74:28, Dst: 00:e0:4c:9d:47:c7
    Destination: 00:e0:4c:9d:47:c7 (Realtek__9d:47:c7)
    Source: 00:50:f2:73:74:28 (Microsof_73:74:28)
    Type: IP (0x0800)
Internet Protocol, Src Addr: 63.240.202.126 (63.240.202.126), Dst Addr: 192.168.2.27 (192.168.2.27)
    Version: 4
    Header length: 20 bytes
    Differentiated Services Field: 0x00 (DSCP 0x00: Default; ECN: 0x00)
        0000 00.. = Differentiated Services Codepoint: Default (0x00)
        .... ..0. = ECN-Capable Transport (ECT): 0
        .... ...0 = ECN-CE: 0
    Total Length: 576
    Identification: 0xc855
    Flags: 0x00
    Fragment offset: 0
    Time to live: 113
    Protocol: TCP (0x06)
    Header checksum: 0xb230 (correct)
    Source: 63.240.202.126 (63.240.202.126)
    Destination: 192.168.2.27 (192.168.2.27)
Transmission Control Protocol, Src Port: 6112 (6112), Dst Port: 2062 (2062), Seq: 1641980532, Ack: 1307580499, Len: 524
    Source port: 6112 (6112)
    Destination port: 2062 (2062)
    Sequence number: 1641980532
    Next sequence number: 1641981056
    Acknowledgement number: 1307580499
    Header length: 32 bytes
    Flags: 0x0010 (ACK)
    Window size: 65534
    Checksum: 0xeddf (correct)
    Options: (12 bytes)
Data (524 bytes)

0000  00 e0 4c 9d 47 c7 00 50 f2 73 74 28 08 00 45 00   ..L.G..P.st(..E.
0010  02 40 c8 55 00 00 71 06 b2 30 3f f0 ca 7e c0 a8   .@.U..q..0?..~..
0020  02 1b 17 e0 08 0e 61 de a2 74 4d f0 18 53 80 10   ......a..tM..S..
0030  ff fe ed df 00 00 01 01 08 0a 02 09 6a 64 00 8a   ............jd..
0040  da 36 ff 44 d5 05 02 01 00 00 00 01 50 41 4d 00   .6.D........PAM.
0050  06 cc 83 09 29 4d 61 70 73 5c 28 34 29 4c 6f 73   ....)Maps\(4)Los
0060  74 54 65 6d 70 6c 65 2e 77 33 6d 00 4d 61 70 73   tTemple.w3m.Maps
0070  5c 28 34 29 54 72 61 6e 71 75 69 6c 50 61 74 68   \(4)TranquilPath
0080  73 2e 77 33 6d 00 4d 61 70 73 5c 28 38 29 54 68   s.w3m.Maps\(8)Th
0090  65 43 72 75 63 69 62 6c 65 2e 77 33 6d 00 4d 61   eCrucible.w3m.Ma
00a0  70 73 5c 28 38 29 47 6f 6c 65 6d 73 49 6e 54 68   ps\(8)GolemsInTh
00b0  65 4d 69 73 74 2e 77 33 6d 00 4d 61 70 73 5c 46   eMist.w3m.Maps\F
00c0  72 6f 7a 65 6e 54 68 72 6f 6e 65 5c 28 32 29 47   rozenThrone\(2)G
00d0  6c 61 63 69 61 6c 54 68 61 77 2e 77 33 78 00 4d   lacialThaw.w3x.M
00e0  61 70 73 5c 46 72 6f 7a 65 6e 54 68 72 6f 6e 65   aps\FrozenThrone
00f0  5c 28 32 29 54 68 65 54 77 6f 52 69 76 65 72 73   \(2)TheTwoRivers
0100  2e 77 33 78 00 4d 61 70 73 5c 46 72 6f 7a 65 6e   .w3x.Maps\Frozen
0110  54 68 72 6f 6e 65 5c 28 32 29 54 69 72 69 73 66   Throne\(2)Tirisf
0120  61 6c 47 6c 61 64 65 73 2e 77 33 78 00 4d 61 70   alGlades.w3x.Map
0130  73 5c 46 72 6f 7a 65 6e 54 68 72 6f 6e 65 5c 28   s\FrozenThrone\(
0140  34 29 41 76 61 6c 61 6e 63 68 65 2e 77 33 78 00   4)Avalanche.w3x.
0150  4d 61 70 73 5c 46 72 6f 7a 65 6e 54 68 72 6f 6e   Maps\FrozenThron
0160  65 5c 28 34 29 42 72 69 64 67 65 54 6f 6f 4e 65   e\(4)BridgeTooNe
0170  61 72 2e 77 33 78 00 4d 61 70 73 5c 46 72 6f 7a   ar.w3x.Maps\Froz
0180  65 6e 54 68 72 6f 6e 65 5c 28 34 29 43 6f 6c 64   enThrone\(4)Cold
0190  48 65 61 72 74 2e 77 33 78 00 4d 61 70 73 5c 46   Heart.w3x.Maps\F
01a0  72 6f 7a 65 6e 54 68 72 6f 6e 65 5c 28 34 29 46   rozenThrone\(4)F
01b0  6c 6f 6f 64 70 6c 61 69 6e 73 31 76 31 2e 77 33   loodplains1v1.w3
01c0  78 00 4d 61 70 73 5c 46 72 6f 7a 65 6e 54 68 72   x.Maps\FrozenThr
01d0  6f 6e 65 5c 28 34 29 49 73 6c 61 6e 64 73 2e 77   one\(4)Islands.w
01e0  33 78 00 4d 61 70 73 5c 46 72 6f 7a 65 6e 54 68   3x.Maps\FrozenTh
01f0  72 6f 6e 65 5c 28 34 29 4c 6f 73 74 54 65 6d 70   rone\(4)LostTemp
0200  6c 65 2e 77 33 78 00 4d 61 70 73 5c 46 72 6f 7a   le.w3x.Maps\Froz
0210  65 6e 54 68 72 6f 6e 65 5c 28 34 29 50 61 72 61   enThrone\(4)Para
0220  64 69 73 65 49 73 6c 61 6e 64 73 2e 77 33 78 00   diseIslands.w3x.
0230  4d 61 70 73 5c 46 72 6f 7a 65 6e 54 68 72 6f 6e   Maps\FrozenThron
0240  65 5c 28 34 29 52 6f 75 6e 64 61 62 6f 75         e\(4)Roundabou

Frame 60 (66 bytes on wire, 66 bytes captured)
Ethernet II, Src: 00:e0:4c:9d:47:c7, Dst: 00:50:f2:73:74:28
    Destination: 00:50:f2:73:74:28 (Microsof_73:74:28)
    Source: 00:e0:4c:9d:47:c7 (Realtek__9d:47:c7)
    Type: IP (0x0800)
Internet Protocol, Src Addr: 192.168.2.27 (192.168.2.27), Dst Addr: 63.240.202.126 (63.240.202.126)
    Version: 4
    Header length: 20 bytes
    Differentiated Services Field: 0x00 (DSCP 0x00: Default; ECN: 0x00)
        0000 00.. = Differentiated Services Codepoint: Default (0x00)
        .... ..0. = ECN-Capable Transport (ECT): 0
        .... ...0 = ECN-CE: 0
    Total Length: 52
    Identification: 0x5d33
    Flags: 0x04
    Fragment offset: 0
    Time to live: 128
    Protocol: TCP (0x06)
    Header checksum: 0xd05e (correct)
    Source: 192.168.2.27 (192.168.2.27)
    Destination: 63.240.202.126 (63.240.202.126)
Transmission Control Protocol, Src Port: 2062 (2062), Dst Port: 6112 (6112), Seq: 1307580499, Ack: 1641981056, Len: 0
    Source port: 2062 (2062)
    Destination port: 6112 (6112)
    Sequence number: 1307580499
    Acknowledgement number: 1641981056
    Header length: 32 bytes
    Flags: 0x0010 (ACK)
    Window size: 31452
    Checksum: 0x5aee (correct)
    Options: (12 bytes)

0000  00 50 f2 73 74 28 00 e0 4c 9d 47 c7 08 00 45 00   .P.st(..L.G...E.
0010  00 34 5d 33 40 00 80 06 d0 5e c0 a8 02 1b 3f f0   .4]3@....^....?.
0020  ca 7e 08 0e 17 e0 4d f0 18 53 61 de a4 80 80 10   .~....M..Sa.....
0030  7a dc 5a ee 00 00 01 01 08 0a 00 8a da 38 02 09   z.Z..........8..
0040  6a 64                                             jd

Frame 61 (590 bytes on wire, 590 bytes captured)
Ethernet II, Src: 00:50:f2:73:74:28, Dst: 00:e0:4c:9d:47:c7
    Destination: 00:e0:4c:9d:47:c7 (Realtek__9d:47:c7)
    Source: 00:50:f2:73:74:28 (Microsof_73:74:28)
    Type: IP (0x0800)
Internet Protocol, Src Addr: 63.240.202.126 (63.240.202.126), Dst Addr: 192.168.2.27 (192.168.2.27)
    Version: 4
    Header length: 20 bytes
    Differentiated Services Field: 0x00 (DSCP 0x00: Default; ECN: 0x00)
        0000 00.. = Differentiated Services Codepoint: Default (0x00)
        .... ..0. = ECN-Capable Transport (ECT): 0
        .... ...0 = ECN-CE: 0
    Total Length: 576
    Identification: 0xc856
    Flags: 0x00
    Fragment offset: 0
    Time to live: 113
    Protocol: TCP (0x06)
    Header checksum: 0xb22f (correct)
    Source: 63.240.202.126 (63.240.202.126)
    Destination: 192.168.2.27 (192.168.2.27)
Transmission Control Protocol, Src Port: 6112 (6112), Dst Port: 2062 (2062), Seq: 1641981056, Ack: 1307580499, Len: 524
    Source port: 6112 (6112)
    Destination port: 2062 (2062)
    Sequence number: 1641981056
    Next sequence number: 1641981580
    Acknowledgement number: 1307580499
    Header length: 32 bytes
    Flags: 0x0010 (ACK)
    Window size: 65534
    Checksum: 0x2a2e (correct)
    Options: (12 bytes)
Data (524 bytes)

0000  00 e0 4c 9d 47 c7 00 50 f2 73 74 28 08 00 45 00   ..L.G..P.st(..E.
0010  02 40 c8 56 00 00 71 06 b2 2f 3f f0 ca 7e c0 a8   .@.V..q../?..~..
0020  02 1b 17 e0 08 0e 61 de a4 80 4d f0 18 53 80 10   ......a...M..S..
0030  ff fe 2a 2e 00 00 01 01 08 0a 02 09 6a 64 00 8a   ..*.........jd..
0040  da 36 74 2e 77 33 78 00 4d 61 70 73 5c 46 72 6f   .6t.w3x.Maps\Fro
0050  7a 65 6e 54 68 72 6f 6e 65 5c 28 34 29 54 75 72   zenThrone\(4)Tur
0060  74 6c 65 52 6f 63 6b 2e 77 33 78 00 4d 61 70 73   tleRock.w3x.Maps
0070  5c 46 72 6f 7a 65 6e 54 68 72 6f 6e 65 5c 28 34   \FrozenThrone\(4
0080  29 54 77 69 73 74 65 64 4d 65 61 64 6f 77 73 2e   )TwistedMeadows.
0090  77 33 78 00 4d 61 70 73 5c 46 72 6f 7a 65 6e 54   w3x.Maps\FrozenT
00a0  68 72 6f 6e 65 5c 28 34 29 57 65 74 6c 61 6e 64   hrone\(4)Wetland
00b0  73 2e 77 33 78 00 4d 61 70 73 5c 46 72 6f 7a 65   s.w3x.Maps\Froze
00c0  6e 54 68 72 6f 6e 65 5c 28 36 29 42 6c 6f 6f 64   nThrone\(6)Blood
00d0  73 74 6f 6e 65 4d 65 73 61 2e 77 33 78 00 4d 61   stoneMesa.w3x.Ma
00e0  70 73 5c 46 72 6f 7a 65 6e 54 68 72 6f 6e 65 5c   ps\FrozenThrone\
00f0  28 36 29 45 6e 61 6b 72 6f 73 57 61 79 2e 77 33   (6)EnakrosWay.w3
0100  78 00 4d 61 70 73 5c 46 72 6f 7a 65 6e 54 68 72   x.Maps\FrozenThr
0110  6f 6e 65 5c 28 36 29 47 6e 6f 6c 6c 57 6f 6f 64   one\(6)GnollWood
0120  2e 77 33 78 00 4d 61 70 73 5c 46 72 6f 7a 65 6e   .w3x.Maps\Frozen
0130  54 68 72 6f 6e 65 5c 28 36 29 4a 75 6e 67 6c 65   Throne\(6)Jungle
0140  46 65 76 65 72 2e 77 33 78 00 4d 61 70 73 5c 46   Fever.w3x.Maps\F
0150  72 6f 7a 65 6e 54 68 72 6f 6e 65 5c 28 36 29 4d   rozenThrone\(6)M
0160  6f 6e 73 6f 6f 6e 2e 77 33 78 00 4d 61 70 73 5c   onsoon.w3x.Maps\
0170  46 72 6f 7a 65 6e 54 68 72 6f 6e 65 5c 28 36 29   FrozenThrone\(6)
0180  52 69 63 65 46 69 65 6c 64 73 2e 77 33 78 00 4d   RiceFields.w3x.M
0190  61 70 73 5c 46 72 6f 7a 65 6e 54 68 72 6f 6e 65   aps\FrozenThrone
01a0  5c 28 36 29 53 61 76 61 67 65 53 74 6f 72 6d 2e   \(6)SavageStorm.
01b0  77 33 78 00 4d 61 70 73 5c 46 72 6f 7a 65 6e 54   w3x.Maps\FrozenT
01c0  68 72 6f 6e 65 5c 28 36 29 53 63 6f 72 63 68 65   hrone\(6)Scorche
01d0  64 42 61 73 69 6e 2e 77 33 78 00 4d 61 70 73 5c   dBasin.w3x.Maps\
01e0  46 72 6f 7a 65 6e 54 68 72 6f 6e 65 5c 28 36 29   FrozenThrone\(6)
01f0  53 74 72 61 6e 67 6c 65 74 68 6f 72 6e 56 61 6c   StranglethornVal
0200  65 2e 77 33 78 00 4d 61 70 73 5c 46 72 6f 7a 65   e.w3x.Maps\Froze
0210  6e 54 68 72 6f 6e 65 5c 28 36 29 54 69 6d 62 65   nThrone\(6)Timbe
0220  72 6d 61 77 48 6f 6c 64 2e 77 33 78 00 4d 61 70   rmawHold.w3x.Map
0230  73 5c 46 72 6f 7a 65 6e 54 68 72 6f 6e 65 5c 28   s\FrozenThrone\(
0240  36 29 55 70 70 65 72 4b 69 6e 67 64 6f 6d         6)UpperKingdom

Frame 62 (511 bytes on wire, 511 bytes captured)
Ethernet II, Src: 00:50:f2:73:74:28, Dst: 00:e0:4c:9d:47:c7
    Destination: 00:e0:4c:9d:47:c7 (Realtek__9d:47:c7)
    Source: 00:50:f2:73:74:28 (Microsof_73:74:28)
    Type: IP (0x0800)
Internet Protocol, Src Addr: 63.240.202.126 (63.240.202.126), Dst Addr: 192.168.2.27 (192.168.2.27)
    Version: 4
    Header length: 20 bytes
    Differentiated Services Field: 0x00 (DSCP 0x00: Default; ECN: 0x00)
        0000 00.. = Differentiated Services Codepoint: Default (0x00)
        .... ..0. = ECN-Capable Transport (ECT): 0
        .... ...0 = ECN-CE: 0
    Total Length: 497
    Identification: 0xc857
    Flags: 0x00
    Fragment offset: 0
    Time to live: 113
    Protocol: TCP (0x06)
    Header checksum: 0xb27d (correct)
    Source: 63.240.202.126 (63.240.202.126)
    Destination: 192.168.2.27 (192.168.2.27)
Transmission Control Protocol, Src Port: 6112 (6112), Dst Port: 2062 (2062), Seq: 1641981580, Ack: 1307580499, Len: 445
    Source port: 6112 (6112)
    Destination port: 2062 (2062)
    Sequence number: 1641981580
    Next sequence number: 1641982025
    Acknowledgement number: 1307580499
    Header length: 32 bytes
    Flags: 0x0018 (PSH, ACK)
    Window size: 65534
    Checksum: 0xc882 (correct)
    Options: (12 bytes)
Data (445 bytes)

0000  00 e0 4c 9d 47 c7 00 50 f2 73 74 28 08 00 45 00   ..L.G..P.st(..E.
0010  01 f1 c8 57 00 00 71 06 b2 7d 3f f0 ca 7e c0 a8   ...W..q..}?..~..
0020  02 1b 17 e0 08 0e 61 de a6 8c 4d f0 18 53 80 18   ......a...M..S..
0030  ff fe c8 82 00 00 01 01 08 0a 02 09 6a 64 00 8a   ............jd..
0040  da 36 2e 77 33 78 00 4d 61 70 73 5c 46 72 6f 7a   .6.w3x.Maps\Froz
0050  65 6e 54 68 72 6f 6e 65 5c 28 36 29 57 68 65 65   enThrone\(6)Whee
0060  6c 4f 66 43 68 61 6f 73 2e 77 33 78 00 4d 61 70   lOfChaos.w3x.Map
0070  73 5c 46 72 6f 7a 65 6e 54 68 72 6f 6e 65 5c 28   s\FrozenThrone\(
0080  38 29 42 61 74 74 6c 65 67 72 6f 75 6e 64 2e 77   8)Battleground.w
0090  33 78 00 4d 61 70 73 5c 46 72 6f 7a 65 6e 54 68   3x.Maps\FrozenTh
00a0  72 6f 6e 65 5c 28 38 29 44 65 61 74 68 6b 6e 65   rone\(8)Deathkne
00b0  6c 6c 2e 77 33 78 00 4d 61 70 73 5c 46 72 6f 7a   ll.w3x.Maps\Froz
00c0  65 6e 54 68 72 6f 6e 65 5c 28 38 29 46 65 72 61   enThrone\(8)Fera
00d0  6c 61 73 2e 77 33 78 00 4d 61 70 73 5c 46 72 6f   las.w3x.Maps\Fro
00e0  7a 65 6e 54 68 72 6f 6e 65 5c 28 38 29 46 72 69   zenThrone\(8)Fri
00f0  65 6e 64 73 2e 77 33 78 00 4d 61 70 73 5c 46 72   ends.w3x.Maps\Fr
0100  6f 7a 65 6e 54 68 72 6f 6e 65 5c 28 38 29 47 61   ozenThrone\(8)Ga
0110  72 64 65 6e 6f 66 57 61 72 2e 77 33 78 00 4d 61   rdenofWar.w3x.Ma
0120  70 73 5c 46 72 6f 7a 65 6e 54 68 72 6f 6e 65 5c   ps\FrozenThrone\
0130  28 38 29 4d 61 72 6b 65 74 53 71 75 61 72 65 2e   (8)MarketSquare.
0140  77 33 78 00 4d 61 70 73 5c 46 72 6f 7a 65 6e 54   w3x.Maps\FrozenT
0150  68 72 6f 6e 65 5c 28 38 29 4d 75 72 27 67 75 6c   hrone\(8)Mur'gul
0160  4f 61 73 69 73 2e 77 33 78 00 4d 61 70 73 5c 46   Oasis.w3x.Maps\F
0170  72 6f 7a 65 6e 54 68 72 6f 6e 65 5c 28 38 29 50   rozenThrone\(8)P
0180  6c 61 69 6e 73 4f 66 53 6e 6f 77 2e 77 33 78 00   lainsOfSnow.w3x.
0190  4d 61 70 73 5c 46 72 6f 7a 65 6e 54 68 72 6f 6e   Maps\FrozenThron
01a0  65 5c 28 38 29 52 6f 63 6b 51 75 61 72 72 79 2e   e\(8)RockQuarry.
01b0  77 33 78 00 4d 61 70 73 5c 46 72 6f 7a 65 6e 54   w3x.Maps\FrozenT
01c0  68 72 6f 6e 65 5c 28 38 29 53 61 6e 63 74 75 61   hrone\(8)Sanctua
01d0  72 79 2e 77 33 78 00 4d 61 70 73 5c 46 72 6f 7a   ry.w3x.Maps\Froz
01e0  65 6e 54 68 72 6f 6e 65 5c 28 31 30 29 52 61 67   enThrone\(10)Rag
01f0  69 6e 67 53 74 72 65 61 6d 2e 77 33 78 00 01      ingStream.w3x..

Frame 63 (66 bytes on wire, 66 bytes captured)
Ethernet II, Src: 00:e0:4c:9d:47:c7, Dst: 00:50:f2:73:74:28
    Destination: 00:50:f2:73:74:28 (Microsof_73:74:28)
    Source: 00:e0:4c:9d:47:c7 (Realtek__9d:47:c7)
    Type: IP (0x0800)
Internet Protocol, Src Addr: 192.168.2.27 (192.168.2.27), Dst Addr: 63.240.202.126 (63.240.202.126)
    Version: 4
    Header length: 20 bytes
    Differentiated Services Field: 0x00 (DSCP 0x00: Default; ECN: 0x00)
        0000 00.. = Differentiated Services Codepoint: Default (0x00)
        .... ..0. = ECN-Capable Transport (ECT): 0
        .... ...0 = ECN-CE: 0
    Total Length: 52
    Identification: 0x5d34
    Flags: 0x04
    Fragment offset: 0
    Time to live: 128
    Protocol: TCP (0x06)
    Header checksum: 0xd05d (correct)
    Source: 192.168.2.27 (192.168.2.27)
    Destination: 63.240.202.126 (63.240.202.126)
Transmission Control Protocol, Src Port: 2062 (2062), Dst Port: 6112 (6112), Seq: 1307580499, Ack: 1641982025, Len: 0
    Source port: 2062 (2062)
    Destination port: 6112 (6112)
    Sequence number: 1307580499
    Acknowledgement number: 1641982025
    Header length: 32 bytes
    Flags: 0x0010 (ACK)
    Window size: 32767
    Checksum: 0x5202 (correct)
    Options: (12 bytes)

0000  00 50 f2 73 74 28 00 e0 4c 9d 47 c7 08 00 45 00   .P.st(..L.G...E.
0010  00 34 5d 34 40 00 80 06 d0 5d c0 a8 02 1b 3f f0   .4]4@....]....?.
0020  ca 7e 08 0e 17 e0 4d f0 18 53 61 de a8 49 80 10   .~....M..Sa..I..
0030  7f ff 52 02 00 00 01 01 08 0a 00 8a da 38 02 09   ..R..........8..
0040  6a 64                                             jd

Frame 64 (590 bytes on wire, 590 bytes captured)
Ethernet II, Src: 00:50:f2:73:74:28, Dst: 00:e0:4c:9d:47:c7
    Destination: 00:e0:4c:9d:47:c7 (Realtek__9d:47:c7)
    Source: 00:50:f2:73:74:28 (Microsof_73:74:28)
    Type: IP (0x0800)
Internet Protocol, Src Addr: 63.240.202.126 (63.240.202.126), Dst Addr: 192.168.2.27 (192.168.2.27)
    Version: 4
    Header length: 20 bytes
    Differentiated Services Field: 0x00 (DSCP 0x00: Default; ECN: 0x00)
        0000 00.. = Differentiated Services Codepoint: Default (0x00)
        .... ..0. = ECN-Capable Transport (ECT): 0
        .... ...0 = ECN-CE: 0
    Total Length: 576
    Identification: 0xc858
    Flags: 0x00
    Fragment offset: 0
    Time to live: 113
    Protocol: TCP (0x06)
    Header checksum: 0xb22d (correct)
    Source: 63.240.202.126 (63.240.202.126)
    Destination: 192.168.2.27 (192.168.2.27)
Transmission Control Protocol, Src Port: 6112 (6112), Dst Port: 2062 (2062), Seq: 1641982025, Ack: 1307580499, Len: 524
    Source port: 6112 (6112)
    Destination port: 2062 (2062)
    Sequence number: 1641982025
    Next sequence number: 1641982549
    Acknowledgement number: 1307580499
    Header length: 32 bytes
    Flags: 0x0010 (ACK)
    Window size: 65534
    Checksum: 0x86d9 (correct)
    Options: (12 bytes)
Data (524 bytes)

0000  00 e0 4c 9d 47 c7 00 50 f2 73 74 28 08 00 45 00   ..L.G..P.st(..E.
0010  02 40 c8 58 00 00 71 06 b2 2d 3f f0 ca 7e c0 a8   .@.X..q..-?..~..
0020  02 1b 17 e0 08 0e 61 de a8 49 4d f0 18 53 80 10   ......a..IM..S..
0030  ff fe 86 d9 00 00 01 01 08 0a 02 09 6a 64 00 8a   ............jd..
0040  da 36 ff 44 12 03 02 01 00 00 00 02 45 50 59 54   .6.D........EPYT
0050  d7 c7 fb 1f 03 00 05 00 00 03 3f 00 07 05 0a 00   ..........?.....
0060  01 0f 10 14 01 00 02 3f 00 0b 07 08 09 0d 0e 10   .......?........
0070  11 14 19 1a 1d 02 00 01 3f 00 0a 12 13 14 17 1b   ........?.......
0080  1c 1e 24 25 02 03 00 01 3f 00 09 1e 1f 20 21 03   ..$%....?.... !.
0090  23 24 25 28 04 00 01 3f 00 09 0b 12 15 16 18 1e   #$%(...?........
00a0  22 26 02 01 03 00 00 05 3f 02 0b 07 08 09 0d 0e   "&......?.......
00b0  10 11 14 19 1a 1d 02 00 04 3f 03 0a 12 13 14 17   .........?......
00c0  1b 1c 1e 24 25 02 03 00 04 3f 04 09 1e 1f 20 21   ...$%....?.... !
00d0  03 23 24 25 28 02 15 00 01 04 3f 00 04 0a 0c 0f   .#$%(.....?.....
00e0  14 01 01 04 3f 02 04 07 14 1a 11 02 01 04 3f 03   ....?.........?.
00f0  04 12 1b 24 25 03 01 04 3f 03 04 12 1b 24 25 04   ...$%...?....$%.
0100  01 04 3f 00 04 0a 0c 0f 14 05 01 04 3f 02 04 07   ..?.........?...
0110  14 1a 11 06 01 04 3f 02 04 07 14 1a 11 07 01 04   ......?.........
0120  3f 03 04 12 1b 24 25 08 01 04 3f 00 04 0a 0c 0f   ?....$%...?.....
0130  14 09 01 01 3f 00 01 0f 0a 01 01 3f 02 01 11 0b   ....?......?....
0140  01 04 20 02 04 07 14 1a 11 0c 01 04 02 00 04 0a   .. .............
0150  0c 0f 14 0d 01 04 04 00 04 0a 0c 0f 14 0e 01 01   ................
0160  3f 00 01 0c 0f 01 04 01 00 04 0a 0c 0f 14 10 01   ?...............
0170  01 3f 02 01 09 11 01 01 3f 02 01 14 12 01 04 08   .?......?.......
0180  00 04 0a 0c 0f 14 13 01 01 3f 00 01 0a 14 01 04   .........?......
0190  20 00 04 0a 0c 0f 14 43 53 45 44 5a a8 23 90 08    ......CSEDZ.#..
01a0  00 00 4f 6e 65 20 76 73 2e 20 4f 6e 65 00 54 77   ..One vs. One.Tw
01b0  6f 20 70 6c 61 79 65 72 73 20 66 69 67 68 74 20   o players fight 
01c0  74 6f 20 74 68 65 20 64 65 61 74 68 2e 00 00 01   to the death....
01d0  54 77 6f 20 76 73 2e 20 54 77 6f 00 54 77 6f 20   Two vs. Two.Two 
01e0  74 65 61 6d 73 20 6f 66 20 74 77 6f 20 76 69 65   teams of two vie
01f0  20 66 6f 72 20 64 6f 6d 69 6e 61 6e 63 65 2e 00    for dominance..
0200  00 02 54 68 72 65 65 20 76 73 2e 20 54 68 72 65   ..Three vs. Thre
0210  65 00 54 77 6f 20 74 65 61 6d 73 20 6f 66 20 74   e.Two teams of t
0220  68 72 65 65 20 66 61 63 65 20 6f 66 66 20 6f 6e   hree face off on
0230  20 74 68 65 20 62 61 74 74 6c 65 66 69 65 6c 64    the battlefield
0240  2e 00 00 03 46 6f 75 72 20 76 73 2e 20 46         ....Four vs. F

Frame 65 (328 bytes on wire, 328 bytes captured)
Ethernet II, Src: 00:50:f2:73:74:28, Dst: 00:e0:4c:9d:47:c7
    Destination: 00:e0:4c:9d:47:c7 (Realtek__9d:47:c7)
    Source: 00:50:f2:73:74:28 (Microsof_73:74:28)
    Type: IP (0x0800)
Internet Protocol, Src Addr: 63.240.202.126 (63.240.202.126), Dst Addr: 192.168.2.27 (192.168.2.27)
    Version: 4
    Header length: 20 bytes
    Differentiated Services Field: 0x00 (DSCP 0x00: Default; ECN: 0x00)
        0000 00.. = Differentiated Services Codepoint: Default (0x00)
        .... ..0. = ECN-Capable Transport (ECT): 0
        .... ...0 = ECN-CE: 0
    Total Length: 314
    Identification: 0xc859
    Flags: 0x00
    Fragment offset: 0
    Time to live: 113
    Protocol: TCP (0x06)
    Header checksum: 0xb332 (correct)
    Source: 63.240.202.126 (63.240.202.126)
    Destination: 192.168.2.27 (192.168.2.27)
Transmission Control Protocol, Src Port: 6112 (6112), Dst Port: 2062 (2062), Seq: 1641982549, Ack: 1307580499, Len: 262
    Source port: 6112 (6112)
    Destination port: 2062 (2062)
    Sequence number: 1641982549
    Next sequence number: 1641982811
    Acknowledgement number: 1307580499
    Header length: 32 bytes
    Flags: 0x0018 (PSH, ACK)
    Window size: 65534
    Checksum: 0xd405 (correct)
    Options: (12 bytes)
Data (262 bytes)

0000  00 e0 4c 9d 47 c7 00 50 f2 73 74 28 08 00 45 00   ..L.G..P.st(..E.
0010  01 3a c8 59 00 00 71 06 b3 32 3f f0 ca 7e c0 a8   .:.Y..q..2?..~..
0020  02 1b 17 e0 08 0e 61 de aa 55 4d f0 18 53 80 18   ......a..UM..S..
0030  ff fe d4 05 00 00 01 01 08 0a 02 09 6a 64 00 8a   ............jd..
0040  da 36 6f 75 72 00 54 77 6f 20 74 65 61 6d 73 20   .6our.Two teams 
0050  6f 66 20 66 6f 75 72 20 68 65 61 64 20 74 6f 20   of four head to 
0060  62 61 74 74 6c 65 2e 00 00 04 53 6d 61 6c 6c 20   battle....Small 
0070  46 72 65 65 20 66 6f 72 20 41 6c 6c 00 43 61 6e   Free for All.Can
0080  20 79 6f 75 20 64 65 66 65 61 74 20 33 2d 35 20    you defeat 3-5 
0090  6f 70 70 6f 6e 65 6e 74 73 20 61 6c 6f 6e 65 3f   opponents alone?
00a0  00 01 00 54 77 6f 20 76 73 2e 20 54 77 6f 00 54   ...Two vs. Two.T
00b0  77 6f 20 74 65 61 6d 73 20 6f 66 20 74 77 6f 20   wo teams of two 
00c0  76 69 65 20 66 6f 72 20 64 6f 6d 69 6e 61 6e 63   vie for dominanc
00d0  65 2e 00 01 02 54 68 72 65 65 20 76 73 2e 20 54   e....Three vs. T
00e0  68 72 65 65 00 54 77 6f 20 74 65 61 6d 73 20 6f   hree.Two teams o
00f0  66 20 74 68 72 65 65 20 66 61 63 65 20 6f 66 66   f three face off
0100  20 6f 6e 20 74 68 65 20 62 61 74 74 6c 65 66 69    on the battlefi
0110  65 6c 64 2e 00 01 03 46 6f 75 72 20 76 73 2e 20   eld....Four vs. 
0120  46 6f 75 72 00 54 77 6f 20 74 65 61 6d 73 20 6f   Four.Two teams o
0130  66 20 66 6f 75 72 20 68 65 61 64 20 74 6f 20 62   f four head to b
0140  61 74 74 6c 65 2e 00 01                           attle...

Frame 66 (66 bytes on wire, 66 bytes captured)
Ethernet II, Src: 00:e0:4c:9d:47:c7, Dst: 00:50:f2:73:74:28
    Destination: 00:50:f2:73:74:28 (Microsof_73:74:28)
    Source: 00:e0:4c:9d:47:c7 (Realtek__9d:47:c7)
    Type: IP (0x0800)
Internet Protocol, Src Addr: 192.168.2.27 (192.168.2.27), Dst Addr: 63.240.202.126 (63.240.202.126)
    Version: 4
    Header length: 20 bytes
    Differentiated Services Field: 0x00 (DSCP 0x00: Default; ECN: 0x00)
        0000 00.. = Differentiated Services Codepoint: Default (0x00)
        .... ..0. = ECN-Capable Transport (ECT): 0
        .... ...0 = ECN-CE: 0
    Total Length: 52
    Identification: 0x5d35
    Flags: 0x04
    Fragment offset: 0
    Time to live: 128
    Protocol: TCP (0x06)
    Header checksum: 0xd05c (correct)
    Source: 192.168.2.27 (192.168.2.27)
    Destination: 63.240.202.126 (63.240.202.126)
Transmission Control Protocol, Src Port: 2062 (2062), Dst Port: 6112 (6112), Seq: 1307580499, Ack: 1641982811, Len: 0
    Source port: 2062 (2062)
    Destination port: 6112 (6112)
    Sequence number: 1307580499
    Acknowledgement number: 1641982811
    Header length: 32 bytes
    Flags: 0x0010 (ACK)
    Window size: 31981
    Checksum: 0x5202 (correct)
    Options: (12 bytes)

0000  00 50 f2 73 74 28 00 e0 4c 9d 47 c7 08 00 45 00   .P.st(..L.G...E.
0010  00 34 5d 35 40 00 80 06 d0 5c c0 a8 02 1b 3f f0   .4]5@....\....?.
0020  ca 7e 08 0e 17 e0 4d f0 18 53 61 de ab 5b 80 10   .~....M..Sa..[..
0030  7c ed 52 02 00 00 01 01 08 0a 00 8a da 38 02 09   |.R..........8..
0040  6a 64                                             jd

Frame 67 (590 bytes on wire, 590 bytes captured)
Ethernet II, Src: 00:50:f2:73:74:28, Dst: 00:e0:4c:9d:47:c7
    Destination: 00:e0:4c:9d:47:c7 (Realtek__9d:47:c7)
    Source: 00:50:f2:73:74:28 (Microsof_73:74:28)
    Type: IP (0x0800)
Internet Protocol, Src Addr: 63.240.202.126 (63.240.202.126), Dst Addr: 192.168.2.27 (192.168.2.27)
    Version: 4
    Header length: 20 bytes
    Differentiated Services Field: 0x00 (DSCP 0x00: Default; ECN: 0x00)
        0000 00.. = Differentiated Services Codepoint: Default (0x00)
        .... ..0. = ECN-Capable Transport (ECT): 0
        .... ...0 = ECN-CE: 0
    Total Length: 576
    Identification: 0xc85a
    Flags: 0x00
    Fragment offset: 0
    Time to live: 113
    Protocol: TCP (0x06)
    Header checksum: 0xb22b (correct)
    Source: 63.240.202.126 (63.240.202.126)
    Destination: 192.168.2.27 (192.168.2.27)
Transmission Control Protocol, Src Port: 6112 (6112), Dst Port: 2062 (2062), Seq: 1641982811, Ack: 1307580499, Len: 524
    Source port: 6112 (6112)
